{
  "contractName": "JobMarket",
  "abi": [
    {
      "inputs": [],
      "stateMutability": "nonpayable",
      "type": "constructor"
    },
    {
      "inputs": [],
      "name": "AlreadyBided",
      "type": "error"
    },
    {
      "inputs": [],
      "name": "AlreadyWorker",
      "type": "error"
    },
    {
      "inputs": [],
      "name": "AlreadyWorking",
      "type": "error"
    },
    {
      "inputs": [],
      "name": "GreaterThanPreviousBid",
      "type": "error"
    },
    {
      "inputs": [],
      "name": "InvalidWorker",
      "type": "error"
    },
    {
      "inputs": [],
      "name": "NotBided",
      "type": "error"
    },
    {
      "inputs": [],
      "name": "OverBudget",
      "type": "error"
    },
    {
      "anonymous": false,
      "inputs": [
        {
          "indexed": true,
          "internalType": "address",
          "name": "_jobOwner",
          "type": "address"
        },
        {
          "indexed": false,
          "internalType": "uint256",
          "name": "_amount",
          "type": "uint256"
        }
      ],
      "name": "AmountWithdrawSuccessfully",
      "type": "event"
    },
    {
      "anonymous": false,
      "inputs": [
        {
          "indexed": true,
          "internalType": "address",
          "name": "_jobOwner",
          "type": "address"
        },
        {
          "indexed": true,
          "internalType": "address",
          "name": "_jobWorker",
          "type": "address"
        },
        {
          "indexed": false,
          "internalType": "uint256",
          "name": "_jobId",
          "type": "uint256"
        },
        {
          "indexed": false,
          "internalType": "uint256",
          "name": "_bidAmount",
          "type": "uint256"
        }
      ],
      "name": "BidAccepted",
      "type": "event"
    },
    {
      "anonymous": false,
      "inputs": [
        {
          "indexed": true,
          "internalType": "address",
          "name": "_workerAdd",
          "type": "address"
        },
        {
          "indexed": true,
          "internalType": "uint256",
          "name": "_jobId",
          "type": "uint256"
        },
        {
          "indexed": true,
          "internalType": "uint256",
          "name": "_bidAmount",
          "type": "uint256"
        },
        {
          "indexed": false,
          "internalType": "uint256",
          "name": "_prevBidAmount",
          "type": "uint256"
        }
      ],
      "name": "BidModifiedSuccessfully",
      "type": "event"
    },
    {
      "anonymous": false,
      "inputs": [
        {
          "indexed": true,
          "internalType": "address",
          "name": "_jobOwner",
          "type": "address"
        },
        {
          "indexed": true,
          "internalType": "uint256",
          "name": "_jobBudget",
          "type": "uint256"
        },
        {
          "indexed": true,
          "internalType": "string",
          "name": "_jobName",
          "type": "string"
        },
        {
          "indexed": false,
          "internalType": "uint256",
          "name": "_jobId",
          "type": "uint256"
        }
      ],
      "name": "JobRegistered",
      "type": "event"
    },
    {
      "anonymous": false,
      "inputs": [
        {
          "indexed": true,
          "internalType": "address",
          "name": "_workerAdd",
          "type": "address"
        },
        {
          "indexed": true,
          "internalType": "uint256",
          "name": "_jobId",
          "type": "uint256"
        },
        {
          "indexed": true,
          "internalType": "uint256",
          "name": "_bidAmount",
          "type": "uint256"
        }
      ],
      "name": "SuccessfullyBid",
      "type": "event"
    },
    {
      "anonymous": false,
      "inputs": [
        {
          "indexed": true,
          "internalType": "address",
          "name": "_worker",
          "type": "address"
        },
        {
          "indexed": false,
          "internalType": "string",
          "name": "_workerName",
          "type": "string"
        },
        {
          "indexed": false,
          "internalType": "uint256",
          "name": "_workerId",
          "type": "uint256"
        }
      ],
      "name": "WorkerRegisterSuccessfully",
      "type": "event"
    },
    {
      "anonymous": false,
      "inputs": [
        {
          "indexed": true,
          "internalType": "address",
          "name": "_jobWorker",
          "type": "address"
        },
        {
          "indexed": true,
          "internalType": "uint256",
          "name": "_jobId",
          "type": "uint256"
        },
        {
          "indexed": false,
          "internalType": "uint256",
          "name": "_amount",
          "type": "uint256"
        }
      ],
      "name": "jobCompleted",
      "type": "event"
    },
    {
      "inputs": [
        {
          "internalType": "uint256",
          "name": "",
          "type": "uint256"
        }
      ],
      "name": "_biders",
      "outputs": [
        {
          "internalType": "uint256",
          "name": "bidAmount",
          "type": "uint256"
        },
        {
          "internalType": "address",
          "name": "biderAddress",
          "type": "address"
        }
      ],
      "stateMutability": "view",
      "type": "function"
    },
    {
      "inputs": [
        {
          "internalType": "address",
          "name": "",
          "type": "address"
        }
      ],
      "name": "_fundByJobOwner",
      "outputs": [
        {
          "internalType": "uint256",
          "name": "",
          "type": "uint256"
        }
      ],
      "stateMutability": "view",
      "type": "function"
    },
    {
      "inputs": [],
      "name": "_jobIds",
      "outputs": [
        {
          "internalType": "uint256",
          "name": "",
          "type": "uint256"
        }
      ],
      "stateMutability": "view",
      "type": "function"
    },
    {
      "inputs": [
        {
          "internalType": "address",
          "name": "",
          "type": "address"
        }
      ],
      "name": "_jobOwnerFundLocked",
      "outputs": [
        {
          "internalType": "uint256",
          "name": "",
          "type": "uint256"
        }
      ],
      "stateMutability": "view",
      "type": "function"
    },
    {
      "inputs": [
        {
          "internalType": "uint256",
          "name": "",
          "type": "uint256"
        }
      ],
      "name": "_jobs",
      "outputs": [
        {
          "internalType": "uint256",
          "name": "jobId",
          "type": "uint256"
        },
        {
          "internalType": "string",
          "name": "jobName",
          "type": "string"
        },
        {
          "internalType": "string",
          "name": "jobDescription",
          "type": "string"
        },
        {
          "internalType": "address",
          "name": "jobOwner",
          "type": "address"
        },
        {
          "internalType": "address",
          "name": "jobWorker",
          "type": "address"
        },
        {
          "internalType": "bool",
          "name": "isCompleted",
          "type": "bool"
        },
        {
          "internalType": "bool",
          "name": "isJobValid",
          "type": "bool"
        },
        {
          "internalType": "uint32",
          "name": "jobRegisteredDate",
          "type": "uint32"
        },
        {
          "internalType": "uint32",
          "name": "jobStartedDate",
          "type": "uint32"
        },
        {
          "internalType": "uint32",
          "name": "jobCompletedDate",
          "type": "uint32"
        },
        {
          "internalType": "uint256",
          "name": "jobBudget",
          "type": "uint256"
        }
      ],
      "stateMutability": "view",
      "type": "function"
    },
    {
      "inputs": [
        {
          "internalType": "address",
          "name": "",
          "type": "address"
        }
      ],
      "name": "_validWorkers",
      "outputs": [
        {
          "internalType": "bool",
          "name": "",
          "type": "bool"
        }
      ],
      "stateMutability": "view",
      "type": "function"
    },
    {
      "inputs": [],
      "name": "_workerIds",
      "outputs": [
        {
          "internalType": "uint256",
          "name": "",
          "type": "uint256"
        }
      ],
      "stateMutability": "view",
      "type": "function"
    },
    {
      "inputs": [
        {
          "internalType": "address",
          "name": "",
          "type": "address"
        }
      ],
      "name": "_workers",
      "outputs": [
        {
          "internalType": "uint256",
          "name": "workerId",
          "type": "uint256"
        },
        {
          "internalType": "string",
          "name": "workerName",
          "type": "string"
        },
        {
          "internalType": "bool",
          "name": "isWorking",
          "type": "bool"
        },
        {
          "internalType": "uint32",
          "name": "workerRegisteredDate",
          "type": "uint32"
        },
        {
          "internalType": "uint256",
          "name": "jobsCompleted",
          "type": "uint256"
        }
      ],
      "stateMutability": "view",
      "type": "function"
    },
    {
      "inputs": [
        {
          "internalType": "uint256",
          "name": "_jobId",
          "type": "uint256"
        },
        {
          "internalType": "address",
          "name": "_workerAdd",
          "type": "address"
        }
      ],
      "name": "acceptBid",
      "outputs": [],
      "stateMutability": "nonpayable",
      "type": "function"
    },
    {
      "inputs": [
        {
          "internalType": "uint256",
          "name": "_jobId",
          "type": "uint256"
        }
      ],
      "name": "allBider",
      "outputs": [
        {
          "internalType": "address[]",
          "name": "",
          "type": "address[]"
        }
      ],
      "stateMutability": "view",
      "type": "function"
    },
    {
      "inputs": [
        {
          "internalType": "uint256",
          "name": "_jobId",
          "type": "uint256"
        },
        {
          "internalType": "uint256",
          "name": "_bidAmoun",
          "type": "uint256"
        }
      ],
      "name": "bidJob",
      "outputs": [],
      "stateMutability": "nonpayable",
      "type": "function"
    },
    {
      "inputs": [],
      "name": "extraFund",
      "outputs": [
        {
          "internalType": "uint256",
          "name": "",
          "type": "uint256"
        }
      ],
      "stateMutability": "view",
      "type": "function"
    },
    {
      "inputs": [
        {
          "internalType": "uint256",
          "name": "_jobId",
          "type": "uint256"
        }
      ],
      "name": "jobDone",
      "outputs": [],
      "stateMutability": "nonpayable",
      "type": "function"
    },
    {
      "inputs": [
        {
          "internalType": "uint256",
          "name": "_jobId",
          "type": "uint256"
        },
        {
          "internalType": "uint256",
          "name": "_bidAmoun",
          "type": "uint256"
        }
      ],
      "name": "modifyBid",
      "outputs": [],
      "stateMutability": "nonpayable",
      "type": "function"
    },
    {
      "inputs": [
        {
          "internalType": "string",
          "name": "_jobName",
          "type": "string"
        },
        {
          "internalType": "string",
          "name": "_jobDescription",
          "type": "string"
        },
        {
          "internalType": "uint256",
          "name": "_jobBudge",
          "type": "uint256"
        }
      ],
      "name": "registerJob",
      "outputs": [],
      "stateMutability": "payable",
      "type": "function"
    },
    {
      "inputs": [
        {
          "internalType": "string",
          "name": "_workerName",
          "type": "string"
        }
      ],
      "name": "registerWorker",
      "outputs": [],
      "stateMutability": "nonpayable",
      "type": "function"
    },
    {
      "inputs": [],
      "name": "withdrawExtraAmount",
      "outputs": [],
      "stateMutability": "nonpayable",
      "type": "function"
    }
  ],
  "bytecode": "0x608060405234801561001057600080fd5b50615138806100206000396000f3fe6080604052600436106100fe5760003560e01c80637fc5961d116100955780639529579411610064578063952957941461034f57806399a26c701461037a578063c31ef23f14610391578063ded9b21e146103d8578063f82045e314610401576100fe565b80637fc5961d146102a357806380c8f4fa146102e157806381cdcd381461030a57806392d73b6d14610333576100fe565b8063537fad45116100d1578063537fad45146101cf5780635c64600c146101fa5780635da7e811146102375780636253994414610262576100fe565b806302068664146101035780631e14e8e11461012c5780632231cbe0146101555780632c6fe4a914610192575b600080fd5b34801561010f57600080fd5b5061012a60048036038101906101259190613f08565b61043e565b005b34801561013857600080fd5b50610153600480360381019061014e9190613f48565b610f21565b005b34801561016157600080fd5b5061017c60048036038101906101779190613f88565b611bfe565b6040516101899190614073565b60405180910390f35b34801561019e57600080fd5b506101b960048036038101906101b49190614095565b611f4b565b6040516101c691906140d1565b60405180910390f35b3480156101db57600080fd5b506101e4611f63565b6040516101f191906140d1565b60405180910390f35b34801561020657600080fd5b50610221600480360381019061021c9190614095565b611ff4565b60405161022e9190614107565b60405180910390f35b34801561024357600080fd5b5061024c612014565b60405161025991906140d1565b60405180910390f35b34801561026e57600080fd5b5061028960048036038101906102849190614095565b61201a565b60405161029a9594939291906141d1565b60405180910390f35b3480156102af57600080fd5b506102ca60048036038101906102c59190613f88565b6120f5565b6040516102d892919061423a565b60405180910390f35b3480156102ed57600080fd5b5061030860048036038101906103039190614398565b612139565b005b34801561031657600080fd5b50610331600480360381019061032c9190613f88565b61231f565b005b61034d600480360381019061034891906143e1565b612c98565b005b34801561035b57600080fd5b50610364612fb8565b60405161037191906140d1565b60405180910390f35b34801561038657600080fd5b5061038f612fbe565b005b34801561039d57600080fd5b506103b860048036038101906103b39190613f88565b6130fb565b6040516103cf9b9a9998979695949392919061446c565b60405180910390f35b3480156103e457600080fd5b506103ff60048036038101906103fa9190613f48565b6132ef565b005b34801561040d57600080fd5b5061042860048036038101906104239190614095565b613e48565b60405161043591906140d1565b60405180910390f35b81600060016000838152602001908152602001600020604051806101800160405290816000820154815260200160018201805461047a90614554565b80601f01602080910402602001604051908101604052809291908181526020018280546104a690614554565b80156104f35780601f106104c8576101008083540402835291602001916104f3565b820191906000526020600020905b8154815290600101906020018083116104d657829003601f168201915b5050505050815260200160028201805461050c90614554565b80601f016020809104026020016040519081016040528092919081815260200182805461053890614554565b80156105855780601f1061055a57610100808354040283529160200191610585565b820191906000526020600020905b81548152906001019060200180831161056857829003601f168201915b505050505081526020016003820160009054906101000a900473ffffffffffffffffffffffffffffffffffffffff1673ffffffffffffffffffffffffffffffffffffffff1673ffffffffffffffffffffffffffffffffffffffff1681526020016004820160009054906101000a900473ffffffffffffffffffffffffffffffffffffffff1673ffffffffffffffffffffffffffffffffffffffff1673ffffffffffffffffffffffffffffffffffffffff1681526020016004820160149054906101000a900460ff161515151581526020016004820160159054906101000a900460ff161515151581526020016004820160169054906101000a900463ffffffff1663ffffffff1663ffffffff16815260200160048201601a9054906101000a900463ffffffff1663ffffffff1663ffffffff1681526020016005820160009054906101000a900463ffffffff1663ffffffff1663ffffffff168152602001600682015481526020016007820180548060200260200160405190810160405280929190818152602001828054801561077157602002820191906000526020600020905b8160009054906101000a900473ffffffffffffffffffffffffffffffffffffffff1673ffffffffffffffffffffffffffffffffffffffff1681526020019060010190808311610727575b5050505050815250509050806060015173ffffffffffffffffffffffffffffffffffffffff163373ffffffffffffffffffffffffffffffffffffffff16146107ee576040517f08c379a00000000000000000000000000000000000000000000000000000000081526004016107e5906145f7565b60405180910390fd5b83600060016000838152602001908152602001600020604051806101800160405290816000820154815260200160018201805461082a90614554565b80601f016020809104026020016040519081016040528092919081815260200182805461085690614554565b80156108a35780601f10610878576101008083540402835291602001916108a3565b820191906000526020600020905b81548152906001019060200180831161088657829003601f168201915b505050505081526020016002820180546108bc90614554565b80601f01602080910402602001604051908101604052809291908181526020018280546108e890614554565b80156109355780601f1061090a57610100808354040283529160200191610935565b820191906000526020600020905b81548152906001019060200180831161091857829003601f168201915b505050505081526020016003820160009054906101000a900473ffffffffffffffffffffffffffffffffffffffff1673ffffffffffffffffffffffffffffffffffffffff1673ffffffffffffffffffffffffffffffffffffffff1681526020016004820160009054906101000a900473ffffffffffffffffffffffffffffffffffffffff1673ffffffffffffffffffffffffffffffffffffffff1673ffffffffffffffffffffffffffffffffffffffff1681526020016004820160149054906101000a900460ff161515151581526020016004820160159054906101000a900460ff161515151581526020016004820160169054906101000a900463ffffffff1663ffffffff1663ffffffff16815260200160048201601a9054906101000a900463ffffffff1663ffffffff1663ffffffff1681526020016005820160009054906101000a900463ffffffff1663ffffffff1663ffffffff1681526020016006820154815260200160078201805480602002602001604051908101604052809291908181526020018280548015610b2157602002820191906000526020600020905b8160009054906101000a900473ffffffffffffffffffffffffffffffffffffffff1673ffffffffffffffffffffffffffffffffffffffff1681526020019060010190808311610ad7575b5050505050815250509050600073ffffffffffffffffffffffffffffffffffffffff16816080015173ffffffffffffffffffffffffffffffffffffffff1614610b9f576040517f08c379a0000000000000000000000000000000000000000000000000000000008152600401610b9690614689565b60405180910390fd5b600660008673ffffffffffffffffffffffffffffffffffffffff1673ffffffffffffffffffffffffffffffffffffffff16815260200190815260200160002060009054906101000a900460ff16610c22576040517fc905160300000000000000000000000000000000000000000000000000000000815260040160405180910390fd5b60004290506000600160008981526020019081526020016000209050868160040160006101000a81548173ffffffffffffffffffffffffffffffffffffffff021916908373ffffffffffffffffffffffffffffffffffffffff1602179055508181600401601a6101000a81548163ffffffff021916908363ffffffff1602179055506008600089815260200190815260200160002060008873ffffffffffffffffffffffffffffffffffffffff1673ffffffffffffffffffffffffffffffffffffffff168152602001908152602001600020548160060154610d0491906146d8565b600360003373ffffffffffffffffffffffffffffffffffffffff1673ffffffffffffffffffffffffffffffffffffffff1681526020019081526020016000206000828254610d5291906146d8565b925050819055506008600089815260200190815260200160002060008873ffffffffffffffffffffffffffffffffffffffff1673ffffffffffffffffffffffffffffffffffffffff16815260200190815260200160002054600260003373ffffffffffffffffffffffffffffffffffffffff1673ffffffffffffffffffffffffffffffffffffffff1681526020019081526020016000206000828254610df891906146d8565b925050819055506000600560008973ffffffffffffffffffffffffffffffffffffffff1673ffffffffffffffffffffffffffffffffffffffff168152602001908152602001600020905060018160020160006101000a81548160ff0219169083151502179055508773ffffffffffffffffffffffffffffffffffffffff163373ffffffffffffffffffffffffffffffffffffffff167fc94b51939529c736abed465cef9c3c3cacd78ac7ee0855a967ef32f07935abec8b600860008e815260200190815260200160002060008d73ffffffffffffffffffffffffffffffffffffffff1673ffffffffffffffffffffffffffffffffffffffff16815260200190815260200160002054604051610f0e92919061470c565b60405180910390a3505050505050505050565b816000600160008381526020019081526020016000206040518061018001604052908160008201548152602001600182018054610f5d90614554565b80601f0160208091040260200160405190810160405280929190818152602001828054610f8990614554565b8015610fd65780601f10610fab57610100808354040283529160200191610fd6565b820191906000526020600020905b815481529060010190602001808311610fb957829003601f168201915b50505050508152602001600282018054610fef90614554565b80601f016020809104026020016040519081016040528092919081815260200182805461101b90614554565b80156110685780601f1061103d57610100808354040283529160200191611068565b820191906000526020600020905b81548152906001019060200180831161104b57829003601f168201915b505050505081526020016003820160009054906101000a900473ffffffffffffffffffffffffffffffffffffffff1673ffffffffffffffffffffffffffffffffffffffff1673ffffffffffffffffffffffffffffffffffffffff1681526020016004820160009054906101000a900473ffffffffffffffffffffffffffffffffffffffff1673ffffffffffffffffffffffffffffffffffffffff1673ffffffffffffffffffffffffffffffffffffffff1681526020016004820160149054906101000a900460ff161515151581526020016004820160159054906101000a900460ff161515151581526020016004820160169054906101000a900463ffffffff1663ffffffff1663ffffffff16815260200160048201601a9054906101000a900463ffffffff1663ffffffff1663ffffffff1681526020016005820160009054906101000a900463ffffffff1663ffffffff1663ffffffff168152602001600682015481526020016007820180548060200260200160405190810160405280929190818152602001828054801561125457602002820191906000526020600020905b8160009054906101000a900473ffffffffffffffffffffffffffffffffffffffff1673ffffffffffffffffffffffffffffffffffffffff168152602001906001019080831161120a575b5050505050815250509050806060015173ffffffffffffffffffffffffffffffffffffffff163373ffffffffffffffffffffffffffffffffffffffff16036112d1576040517f08c379a00000000000000000000000000000000000000000000000000000000081526004016112c8906147a7565b60405180910390fd5b83600060016000838152602001908152602001600020604051806101800160405290816000820154815260200160018201805461130d90614554565b80601f016020809104026020016040519081016040528092919081815260200182805461133990614554565b80156113865780601f1061135b57610100808354040283529160200191611386565b820191906000526020600020905b81548152906001019060200180831161136957829003601f168201915b5050505050815260200160028201805461139f90614554565b80601f01602080910402602001604051908101604052809291908181526020018280546113cb90614554565b80156114185780601f106113ed57610100808354040283529160200191611418565b820191906000526020600020905b8154815290600101906020018083116113fb57829003601f168201915b505050505081526020016003820160009054906101000a900473ffffffffffffffffffffffffffffffffffffffff1673ffffffffffffffffffffffffffffffffffffffff1673ffffffffffffffffffffffffffffffffffffffff1681526020016004820160009054906101000a900473ffffffffffffffffffffffffffffffffffffffff1673ffffffffffffffffffffffffffffffffffffffff1673ffffffffffffffffffffffffffffffffffffffff1681526020016004820160149054906101000a900460ff161515151581526020016004820160159054906101000a900460ff161515151581526020016004820160169054906101000a900463ffffffff1663ffffffff1663ffffffff16815260200160048201601a9054906101000a900463ffffffff1663ffffffff1663ffffffff1681526020016005820160009054906101000a900463ffffffff1663ffffffff1663ffffffff168152602001600682015481526020016007820180548060200260200160405190810160405280929190818152602001828054801561160457602002820191906000526020600020905b8160009054906101000a900473ffffffffffffffffffffffffffffffffffffffff1673ffffffffffffffffffffffffffffffffffffffff16815260200190600101908083116115ba575b50505050508152505090508060c00151611653576040517f08c379a000000000000000000000000000000000000000000000000000000000815260040161164a90614813565b60405180910390fd5b600073ffffffffffffffffffffffffffffffffffffffff16816080015173ffffffffffffffffffffffffffffffffffffffff16146116c6576040517f08c379a00000000000000000000000000000000000000000000000000000000081526004016116bd9061487f565b60405180910390fd5b6000670de0b6b3a7640000866116dc919061489f565b9050600660003373ffffffffffffffffffffffffffffffffffffffff1673ffffffffffffffffffffffffffffffffffffffff16815260200190815260200160002060009054906101000a900460ff1661176a576040517f08c379a00000000000000000000000000000000000000000000000000000000081526004016117619061492d565b60405180910390fd5b60006008600089815260200190815260200160002060003373ffffffffffffffffffffffffffffffffffffffff1673ffffffffffffffffffffffffffffffffffffffff16815260200190815260200160002054146117fd576040517f08c379a00000000000000000000000000000000000000000000000000000000081526004016117f490614999565b60405180910390fd5b6000600560003373ffffffffffffffffffffffffffffffffffffffff1673ffffffffffffffffffffffffffffffffffffffff1681526020019081526020016000206040518060a00160405290816000820154815260200160018201805461186390614554565b80601f016020809104026020016040519081016040528092919081815260200182805461188f90614554565b80156118dc5780601f106118b1576101008083540402835291602001916118dc565b820191906000526020600020905b8154815290600101906020018083116118bf57829003601f168201915b505050505081526020016002820160009054906101000a900460ff161515151581526020016002820160019054906101000a900463ffffffff1663ffffffff1663ffffffff1681526020016003820154815250509050806040015115611977576040517f08c379a000000000000000000000000000000000000000000000000000000000815260040161196e90614a05565b60405180910390fd5b6000600160008a8152602001908152602001600020905080600601548311156119d5576040517f08c379a00000000000000000000000000000000000000000000000000000000081526004016119cc90614a71565b60405180910390fd5b80600701339080600181540180825580915050600190039060005260206000200160009091909190916101000a81548173ffffffffffffffffffffffffffffffffffffffff021916908373ffffffffffffffffffffffffffffffffffffffff16021790555082600860008b815260200190815260200160002060003373ffffffffffffffffffffffffffffffffffffffff1673ffffffffffffffffffffffffffffffffffffffff168152602001908152602001600020819055506000600760008b81526020019081526020016000209050600073ffffffffffffffffffffffffffffffffffffffff168160010160009054906101000a900473ffffffffffffffffffffffffffffffffffffffff1673ffffffffffffffffffffffffffffffffffffffff1614158015611b0a5750806000015484105b15611b6057838160000181905550338160010160006101000a81548173ffffffffffffffffffffffffffffffffffffffff021916908373ffffffffffffffffffffffffffffffffffffffff160217905550611bad565b838160000181905550338160010160006101000a81548173ffffffffffffffffffffffffffffffffffffffff021916908373ffffffffffffffffffffffffffffffffffffffff1602179055505b838a3373ffffffffffffffffffffffffffffffffffffffff167fb966920fc23b826292c3b95c956eba748e6d42aa61e638077a6b372c37fb5fd060405160405180910390a450505050505050505050565b60606000600160008481526020019081526020016000206040518061018001604052908160008201548152602001600182018054611c3b90614554565b80601f0160208091040260200160405190810160405280929190818152602001828054611c6790614554565b8015611cb45780601f10611c8957610100808354040283529160200191611cb4565b820191906000526020600020905b815481529060010190602001808311611c9757829003601f168201915b50505050508152602001600282018054611ccd90614554565b80601f0160208091040260200160405190810160405280929190818152602001828054611cf990614554565b8015611d465780601f10611d1b57610100808354040283529160200191611d46565b820191906000526020600020905b815481529060010190602001808311611d2957829003601f168201915b505050505081526020016003820160009054906101000a900473ffffffffffffffffffffffffffffffffffffffff1673ffffffffffffffffffffffffffffffffffffffff1673ffffffffffffffffffffffffffffffffffffffff1681526020016004820160009054906101000a900473ffffffffffffffffffffffffffffffffffffffff1673ffffffffffffffffffffffffffffffffffffffff1673ffffffffffffffffffffffffffffffffffffffff1681526020016004820160149054906101000a900460ff161515151581526020016004820160159054906101000a900460ff161515151581526020016004820160169054906101000a900463ffffffff1663ffffffff1663ffffffff16815260200160048201601a9054906101000a900463ffffffff1663ffffffff1663ffffffff1681526020016005820160009054906101000a900463ffffffff1663ffffffff1663ffffffff1681526020016006820154815260200160078201805480602002602001604051908101604052809291908181526020018280548015611f3257602002820191906000526020600020905b8160009054906101000a900473ffffffffffffffffffffffffffffffffffffffff1673ffffffffffffffffffffffffffffffffffffffff1681526020019060010190808311611ee8575b5050505050815250509050806101600151915050919050565b60036020528060005260406000206000915090505481565b6000600360003373ffffffffffffffffffffffffffffffffffffffff1673ffffffffffffffffffffffffffffffffffffffff16815260200190815260200160002054600260003373ffffffffffffffffffffffffffffffffffffffff1673ffffffffffffffffffffffffffffffffffffffff16815260200190815260200160002054611fef91906146d8565b905090565b60066020528060005260406000206000915054906101000a900460ff1681565b60005481565b600560205280600052604060002060009150905080600001549080600101805461204390614554565b80601f016020809104026020016040519081016040528092919081815260200182805461206f90614554565b80156120bc5780601f10612091576101008083540402835291602001916120bc565b820191906000526020600020905b81548152906001019060200180831161209f57829003601f168201915b5050505050908060020160009054906101000a900460ff16908060020160019054906101000a900463ffffffff16908060030154905085565b60076020528060005260406000206000915090508060000154908060010160009054906101000a900473ffffffffffffffffffffffffffffffffffffffff16905082565b600660003373ffffffffffffffffffffffffffffffffffffffff1673ffffffffffffffffffffffffffffffffffffffff16815260200190815260200160002060009054906101000a900460ff16156121c6576040517f08c379a00000000000000000000000000000000000000000000000000000000081526004016121bd90614add565b60405180910390fd5b6000429050600460008154809291906121de90614afd565b91905055506040518060a0016040528060045481526020018381526020016000151581526020018263ffffffff1681526020016000815250600560003373ffffffffffffffffffffffffffffffffffffffff1673ffffffffffffffffffffffffffffffffffffffff1681526020019081526020016000206000820151816000015560208201518160010190816122749190614cf1565b5060408201518160020160006101000a81548160ff02191690831515021790555060608201518160020160016101000a81548163ffffffff021916908363ffffffff160217905550608082015181600301559050503373ffffffffffffffffffffffffffffffffffffffff167fffb11e36e77ea108d66be149530c02c07e3b66d51fa509903b519bed010f1bde83600454604051612313929190614dc3565b60405180910390a25050565b80600060016000838152602001908152602001600020604051806101800160405290816000820154815260200160018201805461235b90614554565b80601f016020809104026020016040519081016040528092919081815260200182805461238790614554565b80156123d45780601f106123a9576101008083540402835291602001916123d4565b820191906000526020600020905b8154815290600101906020018083116123b757829003601f168201915b505050505081526020016002820180546123ed90614554565b80601f016020809104026020016040519081016040528092919081815260200182805461241990614554565b80156124665780601f1061243b57610100808354040283529160200191612466565b820191906000526020600020905b81548152906001019060200180831161244957829003601f168201915b505050505081526020016003820160009054906101000a900473ffffffffffffffffffffffffffffffffffffffff1673ffffffffffffffffffffffffffffffffffffffff1673ffffffffffffffffffffffffffffffffffffffff1681526020016004820160009054906101000a900473ffffffffffffffffffffffffffffffffffffffff1673ffffffffffffffffffffffffffffffffffffffff1673ffffffffffffffffffffffffffffffffffffffff1681526020016004820160149054906101000a900460ff161515151581526020016004820160159054906101000a900460ff161515151581526020016004820160169054906101000a900463ffffffff1663ffffffff1663ffffffff16815260200160048201601a9054906101000a900463ffffffff1663ffffffff1663ffffffff1681526020016005820160009054906101000a900463ffffffff1663ffffffff1663ffffffff168152602001600682015481526020016007820180548060200260200160405190810160405280929190818152602001828054801561265257602002820191906000526020600020905b8160009054906101000a900473ffffffffffffffffffffffffffffffffffffffff1673ffffffffffffffffffffffffffffffffffffffff1681526020019060010190808311612608575b5050505050815250509050806080015173ffffffffffffffffffffffffffffffffffffffff163373ffffffffffffffffffffffffffffffffffffffff16146126cf576040517f08c379a00000000000000000000000000000000000000000000000000000000081526004016126c690614e3f565b60405180910390fd5b82600060016000838152602001908152602001600020604051806101800160405290816000820154815260200160018201805461270b90614554565b80601f016020809104026020016040519081016040528092919081815260200182805461273790614554565b80156127845780601f1061275957610100808354040283529160200191612784565b820191906000526020600020905b81548152906001019060200180831161276757829003601f168201915b5050505050815260200160028201805461279d90614554565b80601f01602080910402602001604051908101604052809291908181526020018280546127c990614554565b80156128165780601f106127eb57610100808354040283529160200191612816565b820191906000526020600020905b8154815290600101906020018083116127f957829003601f168201915b505050505081526020016003820160009054906101000a900473ffffffffffffffffffffffffffffffffffffffff1673ffffffffffffffffffffffffffffffffffffffff1673ffffffffffffffffffffffffffffffffffffffff1681526020016004820160009054906101000a900473ffffffffffffffffffffffffffffffffffffffff1673ffffffffffffffffffffffffffffffffffffffff1673ffffffffffffffffffffffffffffffffffffffff1681526020016004820160149054906101000a900460ff161515151581526020016004820160159054906101000a900460ff161515151581526020016004820160169054906101000a900463ffffffff1663ffffffff1663ffffffff16815260200160048201601a9054906101000a900463ffffffff1663ffffffff1663ffffffff1681526020016005820160009054906101000a900463ffffffff1663ffffffff1663ffffffff1681526020016006820154815260200160078201805480602002602001604051908101604052809291908181526020018280548015612a0257602002820191906000526020600020905b8160009054906101000a900473ffffffffffffffffffffffffffffffffffffffff1673ffffffffffffffffffffffffffffffffffffffff16815260200190600101908083116129b8575b50505050508152505090508060a0015115612a52576040517f08c379a0000000000000000000000000000000000000000000000000000000008152600401612a4990614eab565b60405180910390fd5b6000429050600060016000888152602001908152602001600020905060018160040160146101000a81548160ff021916908315150217905550818160050160006101000a81548163ffffffff021916908363ffffffff1602179055506000600560003373ffffffffffffffffffffffffffffffffffffffff1673ffffffffffffffffffffffffffffffffffffffff168152602001908152602001600020905060008160020160006101000a81548160ff021916908315150217905550806003016000815480929190612b2390614afd565b91905055506000600860008a815260200190815260200160002060003373ffffffffffffffffffffffffffffffffffffffff1673ffffffffffffffffffffffffffffffffffffffff16815260200190815260200160002054905080600360008560030160009054906101000a900473ffffffffffffffffffffffffffffffffffffffff1673ffffffffffffffffffffffffffffffffffffffff1673ffffffffffffffffffffffffffffffffffffffff1681526020019081526020016000206000828254612bf091906146d8565b925050819055503373ffffffffffffffffffffffffffffffffffffffff166108fc829081150290604051600060405180830381858888f19350505050158015612c3d573d6000803e3d6000fd5b50883373ffffffffffffffffffffffffffffffffffffffff167fb9c4a64e10c10a2b4e69d3a70150dee1cd8c6796850d32fa7db8aa81d3304e4383604051612c8591906140d1565b60405180910390a3505050505050505050565b6000670de0b6b3a764000082612cae919061489f565b90508034612cba611f63565b612cc49190614ecb565b1015612d05576040517f08c379a0000000000000000000000000000000000000000000000000000000008152600401612cfc90614f4b565b60405180910390fd5b6000429050600080815480929190612d1c90614afd565b9190505550600060016000805481526020019081526020016000209050600054816000018190555085816001019081612d559190614cf1565b5084816002019081612d679190614cf1565b50338160030160006101000a81548173ffffffffffffffffffffffffffffffffffffffff021916908373ffffffffffffffffffffffffffffffffffffffff16021790555060008160040160006101000a81548173ffffffffffffffffffffffffffffffffffffffff021916908373ffffffffffffffffffffffffffffffffffffffff16021790555060008160040160146101000a81548160ff02191690831515021790555060018160040160156101000a81548160ff021916908315150217905550818160040160166101000a81548163ffffffff021916908363ffffffff160217905550600081600401601a6101000a81548163ffffffff021916908363ffffffff16021790555060008160050160006101000a81548163ffffffff021916908363ffffffff16021790555082816006018190555034600260003373ffffffffffffffffffffffffffffffffffffffff1673ffffffffffffffffffffffffffffffffffffffff1681526020019081526020016000206000828254612eec9190614ecb565b9250508190555082600360003373ffffffffffffffffffffffffffffffffffffffff1673ffffffffffffffffffffffffffffffffffffffff1681526020019081526020016000206000828254612f429190614ecb565b9250508190555085604051612f579190614fa7565b6040518091039020833373ffffffffffffffffffffffffffffffffffffffff167fdd6225889bfa804e10e994e2db425523713c09f1c6c6a0517a906dabd4df1734600054604051612fa891906140d1565b60405180910390a4505050505050565b60045481565b6000612fc8611f63565b90506000811161300d576040517f08c379a00000000000000000000000000000000000000000000000000000000081526004016130049061500a565b60405180910390fd5b80600260003373ffffffffffffffffffffffffffffffffffffffff1673ffffffffffffffffffffffffffffffffffffffff168152602001908152602001600020600082825461305c91906146d8565b925050819055503373ffffffffffffffffffffffffffffffffffffffff166108fc829081150290604051600060405180830381858888f193505050501580156130a9573d6000803e3d6000fd5b503373ffffffffffffffffffffffffffffffffffffffff167fd3c4c7fa66c94f488964e132aea0d1c8d5f7b2737b6ee7c5c41ce89193aff068826040516130f091906140d1565b60405180910390a250565b600160205280600052604060002060009150905080600001549080600101805461312490614554565b80601f016020809104026020016040519081016040528092919081815260200182805461315090614554565b801561319d5780601f106131725761010080835404028352916020019161319d565b820191906000526020600020905b81548152906001019060200180831161318057829003601f168201915b5050505050908060020180546131b290614554565b80601f01602080910402602001604051908101604052809291908181526020018280546131de90614554565b801561322b5780601f106132005761010080835404028352916020019161322b565b820191906000526020600020905b81548152906001019060200180831161320e57829003601f168201915b5050505050908060030160009054906101000a900473ffffffffffffffffffffffffffffffffffffffff16908060040160009054906101000a900473ffffffffffffffffffffffffffffffffffffffff16908060040160149054906101000a900460ff16908060040160159054906101000a900460ff16908060040160169054906101000a900463ffffffff169080600401601a9054906101000a900463ffffffff16908060050160009054906101000a900463ffffffff1690806006015490508b565b81600060016000838152602001908152602001600020604051806101800160405290816000820154815260200160018201805461332b90614554565b80601f016020809104026020016040519081016040528092919081815260200182805461335790614554565b80156133a45780601f10613379576101008083540402835291602001916133a4565b820191906000526020600020905b81548152906001019060200180831161338757829003601f168201915b505050505081526020016002820180546133bd90614554565b80601f01602080910402602001604051908101604052809291908181526020018280546133e990614554565b80156134365780601f1061340b57610100808354040283529160200191613436565b820191906000526020600020905b81548152906001019060200180831161341957829003601f168201915b505050505081526020016003820160009054906101000a900473ffffffffffffffffffffffffffffffffffffffff1673ffffffffffffffffffffffffffffffffffffffff1673ffffffffffffffffffffffffffffffffffffffff1681526020016004820160009054906101000a900473ffffffffffffffffffffffffffffffffffffffff1673ffffffffffffffffffffffffffffffffffffffff1673ffffffffffffffffffffffffffffffffffffffff1681526020016004820160149054906101000a900460ff161515151581526020016004820160159054906101000a900460ff161515151581526020016004820160169054906101000a900463ffffffff1663ffffffff1663ffffffff16815260200160048201601a9054906101000a900463ffffffff1663ffffffff1663ffffffff1681526020016005820160009054906101000a900463ffffffff1663ffffffff1663ffffffff168152602001600682015481526020016007820180548060200260200160405190810160405280929190818152602001828054801561362257602002820191906000526020600020905b8160009054906101000a900473ffffffffffffffffffffffffffffffffffffffff1673ffffffffffffffffffffffffffffffffffffffff16815260200190600101908083116135d8575b5050505050815250509050806060015173ffffffffffffffffffffffffffffffffffffffff163373ffffffffffffffffffffffffffffffffffffffff160361369f576040517f08c379a0000000000000000000000000000000000000000000000000000000008152600401613696906147a7565b60405180910390fd5b8360006001600083815260200190815260200160002060405180610180016040529081600082015481526020016001820180546136db90614554565b80601f016020809104026020016040519081016040528092919081815260200182805461370790614554565b80156137545780601f1061372957610100808354040283529160200191613754565b820191906000526020600020905b81548152906001019060200180831161373757829003601f168201915b5050505050815260200160028201805461376d90614554565b80601f016020809104026020016040519081016040528092919081815260200182805461379990614554565b80156137e65780601f106137bb576101008083540402835291602001916137e6565b820191906000526020600020905b8154815290600101906020018083116137c957829003601f168201915b505050505081526020016003820160009054906101000a900473ffffffffffffffffffffffffffffffffffffffff1673ffffffffffffffffffffffffffffffffffffffff1673ffffffffffffffffffffffffffffffffffffffff1681526020016004820160009054906101000a900473ffffffffffffffffffffffffffffffffffffffff1673ffffffffffffffffffffffffffffffffffffffff1673ffffffffffffffffffffffffffffffffffffffff1681526020016004820160149054906101000a900460ff161515151581526020016004820160159054906101000a900460ff161515151581526020016004820160169054906101000a900463ffffffff1663ffffffff1663ffffffff16815260200160048201601a9054906101000a900463ffffffff1663ffffffff1663ffffffff1681526020016005820160009054906101000a900463ffffffff1663ffffffff1663ffffffff16815260200160068201548152602001600782018054806020026020016040519081016040528092919081815260200182805480156139d257602002820191906000526020600020905b8160009054906101000a900473ffffffffffffffffffffffffffffffffffffffff1673ffffffffffffffffffffffffffffffffffffffff1681526020019060010190808311613988575b50505050508152505090508060c00151613a21576040517f08c379a0000000000000000000000000000000000000000000000000000000008152600401613a1890614813565b60405180910390fd5b600073ffffffffffffffffffffffffffffffffffffffff16816080015173ffffffffffffffffffffffffffffffffffffffff1614613a94576040517f08c379a0000000000000000000000000000000000000000000000000000000008152600401613a8b9061487f565b60405180910390fd5b6000670de0b6b3a764000086613aaa919061489f565b9050600660003373ffffffffffffffffffffffffffffffffffffffff1673ffffffffffffffffffffffffffffffffffffffff16815260200190815260200160002060009054906101000a900460ff16613b38576040517f08c379a0000000000000000000000000000000000000000000000000000000008152600401613b2f9061492d565b60405180910390fd5b60006008600089815260200190815260200160002060003373ffffffffffffffffffffffffffffffffffffffff1673ffffffffffffffffffffffffffffffffffffffff1681526020019081526020016000205403613bcb576040517f08c379a0000000000000000000000000000000000000000000000000000000008152600401613bc290615076565b60405180910390fd5b6008600088815260200190815260200160002060003373ffffffffffffffffffffffffffffffffffffffff1673ffffffffffffffffffffffffffffffffffffffff168152602001908152602001600020548110613c5d576040517f08c379a0000000000000000000000000000000000000000000000000000000008152600401613c54906150e2565b60405180910390fd5b60006008600089815260200190815260200160002060003373ffffffffffffffffffffffffffffffffffffffff1673ffffffffffffffffffffffffffffffffffffffff1681526020019081526020016000205490506000600760008a815260200190815260200160002090508060010160009054906101000a900473ffffffffffffffffffffffffffffffffffffffff1673ffffffffffffffffffffffffffffffffffffffff163373ffffffffffffffffffffffffffffffffffffffff16148015613d2b5750806000015483105b15613d3e57828160000181905550613d98565b8060000154831015613d9757828160000181905550338160010160006101000a81548173ffffffffffffffffffffffffffffffffffffffff021916908373ffffffffffffffffffffffffffffffffffffffff1602179055505b5b82600860008b815260200190815260200160002060003373ffffffffffffffffffffffffffffffffffffffff1673ffffffffffffffffffffffffffffffffffffffff1681526020019081526020016000208190555082893373ffffffffffffffffffffffffffffffffffffffff167f68cd473c325a0d2c51d6c8b7319220827cbca47eee1719f47eae749506123a0285604051613e3591906140d1565b60405180910390a4505050505050505050565b60026020528060005260406000206000915090505481565b6000604051905090565b600080fd5b600080fd5b6000819050919050565b613e8781613e74565b8114613e9257600080fd5b50565b600081359050613ea481613e7e565b92915050565b600073ffffffffffffffffffffffffffffffffffffffff82169050919050565b6000613ed582613eaa565b9050919050565b613ee581613eca565b8114613ef057600080fd5b50565b600081359050613f0281613edc565b92915050565b60008060408385031215613f1f57613f1e613e6a565b5b6000613f2d85828601613e95565b9250506020613f3e85828601613ef3565b9150509250929050565b60008060408385031215613f5f57613f5e613e6a565b5b6000613f6d85828601613e95565b9250506020613f7e85828601613e95565b9150509250929050565b600060208284031215613f9e57613f9d613e6a565b5b6000613fac84828501613e95565b91505092915050565b600081519050919050565b600082825260208201905092915050565b6000819050602082019050919050565b613fea81613eca565b82525050565b6000613ffc8383613fe1565b60208301905092915050565b6000602082019050919050565b600061402082613fb5565b61402a8185613fc0565b935061403583613fd1565b8060005b8381101561406657815161404d8882613ff0565b975061405883614008565b925050600181019050614039565b5085935050505092915050565b6000602082019050818103600083015261408d8184614015565b905092915050565b6000602082840312156140ab576140aa613e6a565b5b60006140b984828501613ef3565b91505092915050565b6140cb81613e74565b82525050565b60006020820190506140e660008301846140c2565b92915050565b60008115159050919050565b614101816140ec565b82525050565b600060208201905061411c60008301846140f8565b92915050565b600081519050919050565b600082825260208201905092915050565b60005b8381101561415c578082015181840152602081019050614141565b60008484015250505050565b6000601f19601f8301169050919050565b600061418482614122565b61418e818561412d565b935061419e81856020860161413e565b6141a781614168565b840191505092915050565b600063ffffffff82169050919050565b6141cb816141b2565b82525050565b600060a0820190506141e660008301886140c2565b81810360208301526141f88187614179565b905061420760408301866140f8565b61421460608301856141c2565b61422160808301846140c2565b9695505050505050565b61423481613eca565b82525050565b600060408201905061424f60008301856140c2565b61425c602083018461422b565b9392505050565b600080fd5b600080fd5b7f4e487b7100000000000000000000000000000000000000000000000000000000600052604160045260246000fd5b6142a582614168565b810181811067ffffffffffffffff821117156142c4576142c361426d565b5b80604052505050565b60006142d7613e60565b90506142e3828261429c565b919050565b600067ffffffffffffffff8211156143035761430261426d565b5b61430c82614168565b9050602081019050919050565b82818337600083830152505050565b600061433b614336846142e8565b6142cd565b90508281526020810184848401111561435757614356614268565b5b614362848285614319565b509392505050565b600082601f83011261437f5761437e614263565b5b813561438f848260208601614328565b91505092915050565b6000602082840312156143ae576143ad613e6a565b5b600082013567ffffffffffffffff8111156143cc576143cb613e6f565b5b6143d88482850161436a565b91505092915050565b6000806000606084860312156143fa576143f9613e6a565b5b600084013567ffffffffffffffff81111561441857614417613e6f565b5b6144248682870161436a565b935050602084013567ffffffffffffffff81111561444557614444613e6f565b5b6144518682870161436a565b925050604061446286828701613e95565b9150509250925092565b600061016082019050614482600083018e6140c2565b8181036020830152614494818d614179565b905081810360408301526144a8818c614179565b90506144b7606083018b61422b565b6144c4608083018a61422b565b6144d160a08301896140f8565b6144de60c08301886140f8565b6144eb60e08301876141c2565b6144f96101008301866141c2565b6145076101208301856141c2565b6145156101408301846140c2565b9c9b505050505050505050505050565b7f4e487b7100000000000000000000000000000000000000000000000000000000600052602260045260246000fd5b6000600282049050600182168061456c57607f821691505b60208210810361457f5761457e614525565b5b50919050565b7f4f6e6c79206f776e6572206f6620746865206a6f622077696c6c20616363657060008201527f7420746865206269642e00000000000000000000000000000000000000000000602082015250565b60006145e1602a8361412d565b91506145ec82614585565b604082019050919050565b60006020820190508181036000830152614610816145d4565b9050919050565b7f576f726b657220616c72656164792073656c656374656420666f72207468697360008201527f206a6f622e000000000000000000000000000000000000000000000000000000602082015250565b600061467360258361412d565b915061467e82614617565b604082019050919050565b600060208201905081810360008301526146a281614666565b9050919050565b7f4e487b7100000000000000000000000000000000000000000000000000000000600052601160045260246000fd5b60006146e382613e74565b91506146ee83613e74565b9250828203905081811115614706576147056146a9565b5b92915050565b600060408201905061472160008301856140c2565b61472e60208301846140c2565b9392505050565b7f4a6f62206f776e6572206e6f7420616c6c6f77656420746f20706c616365206260008201527f69642e0000000000000000000000000000000000000000000000000000000000602082015250565b600061479160238361412d565b915061479c82614735565b604082019050919050565b600060208201905081810360008301526147c081614784565b9050919050565b7f4a6f6220646f6573206e6f74206578697374732e000000000000000000000000600082015250565b60006147fd60148361412d565b9150614808826147c7565b602082019050919050565b6000602082019050818103600083015261482c816147f0565b9050919050565b7f576f726b657220616c72656164792061737369676e65642e0000000000000000600082015250565b600061486960188361412d565b915061487482614833565b602082019050919050565b600060208201905081810360008301526148988161485c565b9050919050565b60006148aa82613e74565b91506148b583613e74565b92508282026148c381613e74565b915082820484148315176148da576148d96146a9565b5b5092915050565b7f496e76616c6964576f726b657200000000000000000000000000000000000000600082015250565b6000614917600d8361412d565b9150614922826148e1565b602082019050919050565b600060208201905081810360008301526149468161490a565b9050919050565b7f416c726561647942696465640000000000000000000000000000000000000000600082015250565b6000614983600c8361412d565b915061498e8261494d565b602082019050919050565b600060208201905081810360008301526149b281614976565b9050919050565b7f416c7265616479576f726b696e67000000000000000000000000000000000000600082015250565b60006149ef600e8361412d565b91506149fa826149b9565b602082019050919050565b60006020820190508181036000830152614a1e816149e2565b9050919050565b7f4f76657242756467657400000000000000000000000000000000000000000000600082015250565b6000614a5b600a8361412d565b9150614a6682614a25565b602082019050919050565b60006020820190508181036000830152614a8a81614a4e565b9050919050565b7f416c7265616479576f726b657200000000000000000000000000000000000000600082015250565b6000614ac7600d8361412d565b9150614ad282614a91565b602082019050919050565b60006020820190508181036000830152614af681614aba565b9050919050565b6000614b0882613e74565b91507fffffffffffffffffffffffffffffffffffffffffffffffffffffffffffffffff8203614b3a57614b396146a9565b5b600182019050919050565b60008190508160005260206000209050919050565b60006020601f8301049050919050565b600082821b905092915050565b600060088302614ba77fffffffffffffffffffffffffffffffffffffffffffffffffffffffffffffffff82614b6a565b614bb18683614b6a565b95508019841693508086168417925050509392505050565b6000819050919050565b6000614bee614be9614be484613e74565b614bc9565b613e74565b9050919050565b6000819050919050565b614c0883614bd3565b614c1c614c1482614bf5565b848454614b77565b825550505050565b600090565b614c31614c24565b614c3c818484614bff565b505050565b5b81811015614c6057614c55600082614c29565b600181019050614c42565b5050565b601f821115614ca557614c7681614b45565b614c7f84614b5a565b81016020851015614c8e578190505b614ca2614c9a85614b5a565b830182614c41565b50505b505050565b600082821c905092915050565b6000614cc860001984600802614caa565b1980831691505092915050565b6000614ce18383614cb7565b9150826002028217905092915050565b614cfa82614122565b67ffffffffffffffff811115614d1357614d1261426d565b5b614d1d8254614554565b614d28828285614c64565b600060209050601f831160018114614d5b5760008415614d49578287015190505b614d538582614cd5565b865550614dbb565b601f198416614d6986614b45565b60005b82811015614d9157848901518255600182019150602085019450602081019050614d6c565b86831015614dae5784890151614daa601f891682614cb7565b8355505b6001600288020188555050505b505050505050565b60006040820190508181036000830152614ddd8185614179565b9050614dec60208301846140c2565b9392505050565b7f4f6e6c79206a6f6220776f726b657220616c6c6f7765642e0000000000000000600082015250565b6000614e2960188361412d565b9150614e3482614df3565b602082019050919050565b60006020820190508181036000830152614e5881614e1c565b9050919050565b7f4a6f6220616c726561647920636f6d706c657465642e00000000000000000000600082015250565b6000614e9560168361412d565b9150614ea082614e5f565b602082019050919050565b60006020820190508181036000830152614ec481614e88565b9050919050565b6000614ed682613e74565b9150614ee183613e74565b9250828201905080821115614ef957614ef86146a9565b5b92915050565b7f496e73756666696369656e742042616c616e63652e0000000000000000000000600082015250565b6000614f3560158361412d565b9150614f4082614eff565b602082019050919050565b60006020820190508181036000830152614f6481614f28565b9050919050565b600081905092915050565b6000614f8182614122565b614f8b8185614f6b565b9350614f9b81856020860161413e565b80840191505092915050565b6000614fb38284614f76565b915081905092915050565b7f4e6f20657874726120616d6f756e742e00000000000000000000000000000000600082015250565b6000614ff460108361412d565b9150614fff82614fbe565b602082019050919050565b6000602082019050818103600083015261502381614fe7565b9050919050565b7f4e6f744269646564000000000000000000000000000000000000000000000000600082015250565b600061506060088361412d565b915061506b8261502a565b602082019050919050565b6000602082019050818103600083015261508f81615053565b9050919050565b7f477265617465725468616e50726576696f757342696400000000000000000000600082015250565b60006150cc60168361412d565b91506150d782615096565b602082019050919050565b600060208201905081810360008301526150fb816150bf565b905091905056fea2646970667358221220cf4575e2b2c75f493b1f8a8ea68e24aa6820f69696c9e920e5d56714dcae3e9f64736f6c63430008110033",
  "immutableReferences": {},
  "source": "// SPDX-License-Identifier: MIT\r\npragma solidity >=0.8.4 <0.9.0;\r\n\r\nimport './jobs/Jobs.sol';\r\nimport './workers/Workers.sol';\r\n\r\ncontract JobMarket is Jobs, Workers{\r\n\r\n    constructor() Jobs() Workers(){}\r\n}",
  "sourcePath": "C:\\Users\\Neosoft\\Desktop\\NeoSoft\\POC\\truffle\\decentralized-job-market\\contracts\\JobMarket.sol",
  "compiler": {
    "name": "solc",
    "version": "0.8.17+commit.8df45f5f.Emscripten.clang"
  },
  "schemaVersion": "3.4.10",
  "updatedAt": "2022-11-10T04:50:45.754Z",
  "devdoc": {
    "kind": "dev",
    "methods": {},
    "version": 1
  },
  "userdoc": {
    "kind": "user",
    "methods": {},
    "version": 1
  }
}