{
  "contractName": "JobMarket",
  "abi": [
    {
      "inputs": [],
      "stateMutability": "nonpayable",
      "type": "constructor"
    },
    {
      "inputs": [],
      "name": "AlreadyBided",
      "type": "error"
    },
    {
      "inputs": [
        {
          "internalType": "address",
          "name": "workerName",
          "type": "address"
        }
      ],
      "name": "AlreadyWorker",
      "type": "error"
    },
    {
      "inputs": [],
      "name": "AlreadyWorking",
      "type": "error"
    },
    {
      "inputs": [],
      "name": "GreaterThanPreviousBid",
      "type": "error"
    },
    {
      "inputs": [],
      "name": "InvalidWorker",
      "type": "error"
    },
    {
      "inputs": [],
      "name": "NotBided",
      "type": "error"
    },
    {
      "inputs": [],
      "name": "OverBudget",
      "type": "error"
    },
    {
      "anonymous": false,
      "inputs": [
        {
          "indexed": true,
          "internalType": "address",
          "name": "_jobOwner",
          "type": "address"
        },
        {
          "indexed": true,
          "internalType": "address",
          "name": "_jobWorker",
          "type": "address"
        },
        {
          "indexed": false,
          "internalType": "uint256",
          "name": "_jobId",
          "type": "uint256"
        },
        {
          "indexed": false,
          "internalType": "uint256",
          "name": "_bidAmount",
          "type": "uint256"
        }
      ],
      "name": "BidAccepted",
      "type": "event"
    },
    {
      "anonymous": false,
      "inputs": [
        {
          "indexed": true,
          "internalType": "address",
          "name": "_workerAdd",
          "type": "address"
        },
        {
          "indexed": true,
          "internalType": "uint256",
          "name": "_jobId",
          "type": "uint256"
        },
        {
          "indexed": true,
          "internalType": "uint256",
          "name": "_bidAmount",
          "type": "uint256"
        },
        {
          "indexed": false,
          "internalType": "uint256",
          "name": "_prevBidAmount",
          "type": "uint256"
        }
      ],
      "name": "BidModifiedSuccessfully",
      "type": "event"
    },
    {
      "anonymous": false,
      "inputs": [
        {
          "indexed": true,
          "internalType": "address",
          "name": "_jobOwner",
          "type": "address"
        },
        {
          "indexed": false,
          "internalType": "uint256",
          "name": "_amount",
          "type": "uint256"
        }
      ],
      "name": "FundWithdrawSuccessfully",
      "type": "event"
    },
    {
      "anonymous": false,
      "inputs": [
        {
          "indexed": true,
          "internalType": "address",
          "name": "_jobOwner",
          "type": "address"
        },
        {
          "indexed": true,
          "internalType": "uint256",
          "name": "_jobBudget",
          "type": "uint256"
        },
        {
          "indexed": true,
          "internalType": "string",
          "name": "_jobName",
          "type": "string"
        },
        {
          "indexed": false,
          "internalType": "uint256",
          "name": "_jobId",
          "type": "uint256"
        }
      ],
      "name": "JobRegistered",
      "type": "event"
    },
    {
      "anonymous": false,
      "inputs": [
        {
          "indexed": true,
          "internalType": "address",
          "name": "_workerAdd",
          "type": "address"
        },
        {
          "indexed": true,
          "internalType": "uint256",
          "name": "_jobId",
          "type": "uint256"
        },
        {
          "indexed": true,
          "internalType": "uint256",
          "name": "_bidAmount",
          "type": "uint256"
        }
      ],
      "name": "SuccessfullyBid",
      "type": "event"
    },
    {
      "anonymous": false,
      "inputs": [
        {
          "indexed": true,
          "internalType": "address",
          "name": "_worker",
          "type": "address"
        },
        {
          "indexed": false,
          "internalType": "string",
          "name": "_workerName",
          "type": "string"
        },
        {
          "indexed": false,
          "internalType": "uint256",
          "name": "_workerId",
          "type": "uint256"
        }
      ],
      "name": "WorkerRegisterSuccessfully",
      "type": "event"
    },
    {
      "anonymous": false,
      "inputs": [
        {
          "indexed": true,
          "internalType": "address",
          "name": "_jobWorker",
          "type": "address"
        },
        {
          "indexed": true,
          "internalType": "uint256",
          "name": "_jobId",
          "type": "uint256"
        },
        {
          "indexed": false,
          "internalType": "uint256",
          "name": "_amount",
          "type": "uint256"
        }
      ],
      "name": "jobCompleted",
      "type": "event"
    },
    {
      "inputs": [
        {
          "internalType": "uint256",
          "name": "",
          "type": "uint256"
        }
      ],
      "name": "_biders",
      "outputs": [
        {
          "internalType": "uint256",
          "name": "bidAmount",
          "type": "uint256"
        },
        {
          "internalType": "address",
          "name": "biderAddress",
          "type": "address"
        }
      ],
      "stateMutability": "view",
      "type": "function",
      "constant": true
    },
    {
      "inputs": [
        {
          "internalType": "address",
          "name": "",
          "type": "address"
        }
      ],
      "name": "_fundByJobOwner",
      "outputs": [
        {
          "internalType": "uint256",
          "name": "",
          "type": "uint256"
        }
      ],
      "stateMutability": "view",
      "type": "function",
      "constant": true
    },
    {
      "inputs": [],
      "name": "_jobIds",
      "outputs": [
        {
          "internalType": "uint256",
          "name": "",
          "type": "uint256"
        }
      ],
      "stateMutability": "view",
      "type": "function",
      "constant": true
    },
    {
      "inputs": [
        {
          "internalType": "address",
          "name": "",
          "type": "address"
        }
      ],
      "name": "_jobOwnerFundLocked",
      "outputs": [
        {
          "internalType": "uint256",
          "name": "",
          "type": "uint256"
        }
      ],
      "stateMutability": "view",
      "type": "function",
      "constant": true
    },
    {
      "inputs": [
        {
          "internalType": "uint256",
          "name": "",
          "type": "uint256"
        }
      ],
      "name": "_jobs",
      "outputs": [
        {
          "internalType": "uint256",
          "name": "jobId",
          "type": "uint256"
        },
        {
          "internalType": "string",
          "name": "jobName",
          "type": "string"
        },
        {
          "internalType": "string",
          "name": "jobDescription",
          "type": "string"
        },
        {
          "internalType": "address",
          "name": "jobOwner",
          "type": "address"
        },
        {
          "internalType": "address",
          "name": "jobWorker",
          "type": "address"
        },
        {
          "internalType": "bool",
          "name": "isCompleted",
          "type": "bool"
        },
        {
          "internalType": "bool",
          "name": "isJobValid",
          "type": "bool"
        },
        {
          "internalType": "uint32",
          "name": "jobRegisteredDate",
          "type": "uint32"
        },
        {
          "internalType": "uint32",
          "name": "jobStartedDate",
          "type": "uint32"
        },
        {
          "internalType": "uint32",
          "name": "jobCompletedDate",
          "type": "uint32"
        },
        {
          "internalType": "uint256",
          "name": "jobBudget",
          "type": "uint256"
        },
        {
          "internalType": "uint256",
          "name": "jobSettledAmount",
          "type": "uint256"
        }
      ],
      "stateMutability": "view",
      "type": "function",
      "constant": true
    },
    {
      "inputs": [
        {
          "internalType": "address",
          "name": "",
          "type": "address"
        }
      ],
      "name": "_validWorkers",
      "outputs": [
        {
          "internalType": "bool",
          "name": "",
          "type": "bool"
        }
      ],
      "stateMutability": "view",
      "type": "function",
      "constant": true
    },
    {
      "inputs": [],
      "name": "_workerIds",
      "outputs": [
        {
          "internalType": "uint256",
          "name": "",
          "type": "uint256"
        }
      ],
      "stateMutability": "view",
      "type": "function",
      "constant": true
    },
    {
      "inputs": [
        {
          "internalType": "address",
          "name": "",
          "type": "address"
        }
      ],
      "name": "_workers",
      "outputs": [
        {
          "internalType": "uint256",
          "name": "workerId",
          "type": "uint256"
        },
        {
          "internalType": "string",
          "name": "workerName",
          "type": "string"
        },
        {
          "internalType": "bool",
          "name": "isWorking",
          "type": "bool"
        },
        {
          "internalType": "uint32",
          "name": "workerRegisteredDate",
          "type": "uint32"
        },
        {
          "internalType": "uint256",
          "name": "jobsCompleted",
          "type": "uint256"
        }
      ],
      "stateMutability": "view",
      "type": "function",
      "constant": true
    },
    {
      "inputs": [
        {
          "internalType": "uint256",
          "name": "_jobId",
          "type": "uint256"
        },
        {
          "internalType": "address",
          "name": "_workerAdd",
          "type": "address"
        }
      ],
      "name": "acceptBid",
      "outputs": [],
      "stateMutability": "nonpayable",
      "type": "function"
    },
    {
      "inputs": [
        {
          "internalType": "uint256",
          "name": "_jobId",
          "type": "uint256"
        }
      ],
      "name": "allBiders",
      "outputs": [
        {
          "internalType": "address[]",
          "name": "",
          "type": "address[]"
        }
      ],
      "stateMutability": "view",
      "type": "function",
      "constant": true
    },
    {
      "inputs": [
        {
          "internalType": "uint256",
          "name": "_jobId",
          "type": "uint256"
        },
        {
          "internalType": "uint256",
          "name": "_bidAmount",
          "type": "uint256"
        }
      ],
      "name": "bidJob",
      "outputs": [],
      "stateMutability": "nonpayable",
      "type": "function"
    },
    {
      "inputs": [],
      "name": "extraFund",
      "outputs": [
        {
          "internalType": "uint256",
          "name": "",
          "type": "uint256"
        }
      ],
      "stateMutability": "view",
      "type": "function",
      "constant": true
    },
    {
      "inputs": [
        {
          "internalType": "uint256",
          "name": "_jobId",
          "type": "uint256"
        }
      ],
      "name": "jobDone",
      "outputs": [],
      "stateMutability": "nonpayable",
      "type": "function"
    },
    {
      "inputs": [
        {
          "internalType": "uint256",
          "name": "_jobId",
          "type": "uint256"
        },
        {
          "internalType": "uint256",
          "name": "_bidAmount",
          "type": "uint256"
        }
      ],
      "name": "modifyBid",
      "outputs": [],
      "stateMutability": "nonpayable",
      "type": "function"
    },
    {
      "inputs": [
        {
          "internalType": "string",
          "name": "_jobName",
          "type": "string"
        },
        {
          "internalType": "string",
          "name": "_jobDescription",
          "type": "string"
        },
        {
          "internalType": "uint256",
          "name": "_jobBudget",
          "type": "uint256"
        }
      ],
      "name": "registerJob",
      "outputs": [],
      "stateMutability": "payable",
      "type": "function",
      "payable": true
    },
    {
      "inputs": [
        {
          "internalType": "string",
          "name": "_workerName",
          "type": "string"
        }
      ],
      "name": "registerWorker",
      "outputs": [],
      "stateMutability": "nonpayable",
      "type": "function"
    },
    {
      "inputs": [],
      "name": "withdrawExtraFund",
      "outputs": [],
      "stateMutability": "nonpayable",
      "type": "function"
    }
  ],
  "bytecode": "0x608060405234801561001057600080fd5b5061557480620000216000396000f3fe6080604052600436106100fe5760003560e01c80637fc5961d11610095578063952957941161006457806395295794146103295780639620a1d014610354578063c31ef23f14610391578063ded9b21e146103d9578063f82045e314610402576100fe565b80637fc5961d1461027d57806380c8f4fa146102bb57806381cdcd38146102e457806392d73b6d1461030d576100fe565b80635c64600c116100d15780635c64600c146101bd5780635da7e811146101fa57806362539944146102255780636fd28d4a14610266576100fe565b806302068664146101035780631e14e8e11461012c5780632c6fe4a914610155578063537fad4514610192575b600080fd5b34801561010f57600080fd5b5061012a60048036038101906101259190614409565b61043f565b005b34801561013857600080fd5b50610153600480360381019061014e9190614449565b611369565b005b34801561016157600080fd5b5061017c60048036038101906101779190614489565b61209c565b60405161018991906144c5565b60405180910390f35b34801561019e57600080fd5b506101a76120b4565b6040516101b491906144c5565b60405180910390f35b3480156101c957600080fd5b506101e460048036038101906101df9190614489565b612145565b6040516101f191906144fb565b60405180910390f35b34801561020657600080fd5b5061020f612165565b60405161021c91906144c5565b60405180910390f35b34801561023157600080fd5b5061024c60048036038101906102479190614489565b61216b565b60405161025d9594939291906145c5565b60405180910390f35b34801561027257600080fd5b5061027b612246565b005b34801561028957600080fd5b506102a4600480360381019061029f919061461f565b612383565b6040516102b292919061465b565b60405180910390f35b3480156102c757600080fd5b506102e260048036038101906102dd91906147b9565b6123c7565b005b3480156102f057600080fd5b5061030b6004803603810190610306919061461f565b612605565b005b61032760048036038101906103229190614802565b61300c565b005b34801561033557600080fd5b5061033e61331d565b60405161034b91906144c5565b60405180910390f35b34801561036057600080fd5b5061037b6004803603810190610376919061461f565b613323565b604051610388919061494b565b60405180910390f35b34801561039d57600080fd5b506103b860048036038101906103b3919061461f565b61367a565b6040516103d09c9b9a9998979695949392919061496d565b60405180910390f35b3480156103e557600080fd5b5061040060048036038101906103fb9190614449565b613874565b005b34801561040e57600080fd5b5061042960048036038101906104249190614489565b614349565b60405161043691906144c5565b60405180910390f35b81600060016000838152602001908152602001600020604051806101a00160405290816000820154815260200160018201805461047b90614a64565b80601f01602080910402602001604051908101604052809291908181526020018280546104a790614a64565b80156104f45780601f106104c9576101008083540402835291602001916104f4565b820191906000526020600020905b8154815290600101906020018083116104d757829003601f168201915b5050505050815260200160028201805461050d90614a64565b80601f016020809104026020016040519081016040528092919081815260200182805461053990614a64565b80156105865780601f1061055b57610100808354040283529160200191610586565b820191906000526020600020905b81548152906001019060200180831161056957829003601f168201915b505050505081526020016003820160009054906101000a900473ffffffffffffffffffffffffffffffffffffffff1673ffffffffffffffffffffffffffffffffffffffff1673ffffffffffffffffffffffffffffffffffffffff1681526020016004820160009054906101000a900473ffffffffffffffffffffffffffffffffffffffff1673ffffffffffffffffffffffffffffffffffffffff1673ffffffffffffffffffffffffffffffffffffffff1681526020016004820160149054906101000a900460ff161515151581526020016004820160159054906101000a900460ff161515151581526020016004820160169054906101000a900463ffffffff1663ffffffff1663ffffffff16815260200160048201601a9054906101000a900463ffffffff1663ffffffff1663ffffffff1681526020016005820160009054906101000a900463ffffffff1663ffffffff1663ffffffff16815260200160068201548152602001600782015481526020016008820180548060200260200160405190810160405280929190818152602001828054801561077c57602002820191906000526020600020905b8160009054906101000a900473ffffffffffffffffffffffffffffffffffffffff1673ffffffffffffffffffffffffffffffffffffffff1681526020019060010190808311610732575b50505050508152505090508060c001516107cb576040517f08c379a00000000000000000000000000000000000000000000000000000000081526004016107c290614ae1565b60405180910390fd5b83600060016000838152602001908152602001600020604051806101a00160405290816000820154815260200160018201805461080790614a64565b80601f016020809104026020016040519081016040528092919081815260200182805461083390614a64565b80156108805780601f1061085557610100808354040283529160200191610880565b820191906000526020600020905b81548152906001019060200180831161086357829003601f168201915b5050505050815260200160028201805461089990614a64565b80601f01602080910402602001604051908101604052809291908181526020018280546108c590614a64565b80156109125780601f106108e757610100808354040283529160200191610912565b820191906000526020600020905b8154815290600101906020018083116108f557829003601f168201915b505050505081526020016003820160009054906101000a900473ffffffffffffffffffffffffffffffffffffffff1673ffffffffffffffffffffffffffffffffffffffff1673ffffffffffffffffffffffffffffffffffffffff1681526020016004820160009054906101000a900473ffffffffffffffffffffffffffffffffffffffff1673ffffffffffffffffffffffffffffffffffffffff1673ffffffffffffffffffffffffffffffffffffffff1681526020016004820160149054906101000a900460ff161515151581526020016004820160159054906101000a900460ff161515151581526020016004820160169054906101000a900463ffffffff1663ffffffff1663ffffffff16815260200160048201601a9054906101000a900463ffffffff1663ffffffff1663ffffffff1681526020016005820160009054906101000a900463ffffffff1663ffffffff1663ffffffff168152602001600682015481526020016007820154815260200160088201805480602002602001604051908101604052809291908181526020018280548015610b0857602002820191906000526020600020905b8160009054906101000a900473ffffffffffffffffffffffffffffffffffffffff1673ffffffffffffffffffffffffffffffffffffffff1681526020019060010190808311610abe575b5050505050815250509050806060015173ffffffffffffffffffffffffffffffffffffffff163373ffffffffffffffffffffffffffffffffffffffff1614610b85576040517f08c379a0000000000000000000000000000000000000000000000000000000008152600401610b7c90614b73565b60405180910390fd5b85600060016000838152602001908152602001600020604051806101a001604052908160008201548152602001600182018054610bc190614a64565b80601f0160208091040260200160405190810160405280929190818152602001828054610bed90614a64565b8015610c3a5780601f10610c0f57610100808354040283529160200191610c3a565b820191906000526020600020905b815481529060010190602001808311610c1d57829003601f168201915b50505050508152602001600282018054610c5390614a64565b80601f0160208091040260200160405190810160405280929190818152602001828054610c7f90614a64565b8015610ccc5780601f10610ca157610100808354040283529160200191610ccc565b820191906000526020600020905b815481529060010190602001808311610caf57829003601f168201915b505050505081526020016003820160009054906101000a900473ffffffffffffffffffffffffffffffffffffffff1673ffffffffffffffffffffffffffffffffffffffff1673ffffffffffffffffffffffffffffffffffffffff1681526020016004820160009054906101000a900473ffffffffffffffffffffffffffffffffffffffff1673ffffffffffffffffffffffffffffffffffffffff1673ffffffffffffffffffffffffffffffffffffffff1681526020016004820160149054906101000a900460ff161515151581526020016004820160159054906101000a900460ff161515151581526020016004820160169054906101000a900463ffffffff1663ffffffff1663ffffffff16815260200160048201601a9054906101000a900463ffffffff1663ffffffff1663ffffffff1681526020016005820160009054906101000a900463ffffffff1663ffffffff1663ffffffff168152602001600682015481526020016007820154815260200160088201805480602002602001604051908101604052809291908181526020018280548015610ec257602002820191906000526020600020905b8160009054906101000a900473ffffffffffffffffffffffffffffffffffffffff1673ffffffffffffffffffffffffffffffffffffffff1681526020019060010190808311610e78575b5050505050815250509050600073ffffffffffffffffffffffffffffffffffffffff16816080015173ffffffffffffffffffffffffffffffffffffffff1614610f40576040517f08c379a0000000000000000000000000000000000000000000000000000000008152600401610f3790614bdf565b60405180910390fd5b600660008873ffffffffffffffffffffffffffffffffffffffff1673ffffffffffffffffffffffffffffffffffffffff16815260200190815260200160002060009054906101000a900460ff16610fcc576040517f08c379a0000000000000000000000000000000000000000000000000000000008152600401610fc390614c4b565b60405180910390fd5b6000600560008973ffffffffffffffffffffffffffffffffffffffff1673ffffffffffffffffffffffffffffffffffffffff1681526020019081526020016000206040518060a00160405290816000820154815260200160018201805461103290614a64565b80601f016020809104026020016040519081016040528092919081815260200182805461105e90614a64565b80156110ab5780601f10611080576101008083540402835291602001916110ab565b820191906000526020600020905b81548152906001019060200180831161108e57829003601f168201915b505050505081526020016002820160009054906101000a900460ff161515151581526020016002820160019054906101000a900463ffffffff1663ffffffff1663ffffffff1681526020016003820154815250509050806040015115611146576040517f08c379a000000000000000000000000000000000000000000000000000000000815260040161113d90614cb7565b60405180910390fd5b60004290506000600160008c81526020019081526020016000209050898160040160006101000a81548173ffffffffffffffffffffffffffffffffffffffff021916908373ffffffffffffffffffffffffffffffffffffffff1602179055508181600401601a6101000a81548163ffffffff021916908363ffffffff160217905550600860008c815260200190815260200160002060008b73ffffffffffffffffffffffffffffffffffffffff1673ffffffffffffffffffffffffffffffffffffffff1681526020019081526020016000205481600701819055506000816007015482600601546112379190614d06565b905080600360003373ffffffffffffffffffffffffffffffffffffffff1673ffffffffffffffffffffffffffffffffffffffff16815260200190815260200160002060008282546112889190614d06565b925050819055506000600560008d73ffffffffffffffffffffffffffffffffffffffff1673ffffffffffffffffffffffffffffffffffffffff168152602001908152602001600020905060018160020160006101000a81548160ff0219169083151502179055508b73ffffffffffffffffffffffffffffffffffffffff163373ffffffffffffffffffffffffffffffffffffffff167fc94b51939529c736abed465cef9c3c3cacd78ac7ee0855a967ef32f07935abec8f8660070154604051611352929190614d3a565b60405180910390a350505050505050505050505050565b81600060016000838152602001908152602001600020604051806101a0016040529081600082015481526020016001820180546113a590614a64565b80601f01602080910402602001604051908101604052809291908181526020018280546113d190614a64565b801561141e5780601f106113f35761010080835404028352916020019161141e565b820191906000526020600020905b81548152906001019060200180831161140157829003601f168201915b5050505050815260200160028201805461143790614a64565b80601f016020809104026020016040519081016040528092919081815260200182805461146390614a64565b80156114b05780601f10611485576101008083540402835291602001916114b0565b820191906000526020600020905b81548152906001019060200180831161149357829003601f168201915b505050505081526020016003820160009054906101000a900473ffffffffffffffffffffffffffffffffffffffff1673ffffffffffffffffffffffffffffffffffffffff1673ffffffffffffffffffffffffffffffffffffffff1681526020016004820160009054906101000a900473ffffffffffffffffffffffffffffffffffffffff1673ffffffffffffffffffffffffffffffffffffffff1673ffffffffffffffffffffffffffffffffffffffff1681526020016004820160149054906101000a900460ff161515151581526020016004820160159054906101000a900460ff161515151581526020016004820160169054906101000a900463ffffffff1663ffffffff1663ffffffff16815260200160048201601a9054906101000a900463ffffffff1663ffffffff1663ffffffff1681526020016005820160009054906101000a900463ffffffff1663ffffffff1663ffffffff1681526020016006820154815260200160078201548152602001600882018054806020026020016040519081016040528092919081815260200182805480156116a657602002820191906000526020600020905b8160009054906101000a900473ffffffffffffffffffffffffffffffffffffffff1673ffffffffffffffffffffffffffffffffffffffff168152602001906001019080831161165c575b5050505050815250509050806060015173ffffffffffffffffffffffffffffffffffffffff163373ffffffffffffffffffffffffffffffffffffffff1603611723576040517f08c379a000000000000000000000000000000000000000000000000000000000815260040161171a90614dd5565b60405180910390fd5b83600060016000838152602001908152602001600020604051806101a00160405290816000820154815260200160018201805461175f90614a64565b80601f016020809104026020016040519081016040528092919081815260200182805461178b90614a64565b80156117d85780601f106117ad576101008083540402835291602001916117d8565b820191906000526020600020905b8154815290600101906020018083116117bb57829003601f168201915b505050505081526020016002820180546117f190614a64565b80601f016020809104026020016040519081016040528092919081815260200182805461181d90614a64565b801561186a5780601f1061183f5761010080835404028352916020019161186a565b820191906000526020600020905b81548152906001019060200180831161184d57829003601f168201915b505050505081526020016003820160009054906101000a900473ffffffffffffffffffffffffffffffffffffffff1673ffffffffffffffffffffffffffffffffffffffff1673ffffffffffffffffffffffffffffffffffffffff1681526020016004820160009054906101000a900473ffffffffffffffffffffffffffffffffffffffff1673ffffffffffffffffffffffffffffffffffffffff1673ffffffffffffffffffffffffffffffffffffffff1681526020016004820160149054906101000a900460ff161515151581526020016004820160159054906101000a900460ff161515151581526020016004820160169054906101000a900463ffffffff1663ffffffff1663ffffffff16815260200160048201601a9054906101000a900463ffffffff1663ffffffff1663ffffffff1681526020016005820160009054906101000a900463ffffffff1663ffffffff1663ffffffff168152602001600682015481526020016007820154815260200160088201805480602002602001604051908101604052809291908181526020018280548015611a6057602002820191906000526020600020905b8160009054906101000a900473ffffffffffffffffffffffffffffffffffffffff1673ffffffffffffffffffffffffffffffffffffffff1681526020019060010190808311611a16575b50505050508152505090508060c00151611aaf576040517f08c379a0000000000000000000000000000000000000000000000000000000008152600401611aa690614ae1565b60405180910390fd5b600660003373ffffffffffffffffffffffffffffffffffffffff1673ffffffffffffffffffffffffffffffffffffffff16815260200190815260200160002060009054906101000a900460ff16611b3b576040517f08c379a0000000000000000000000000000000000000000000000000000000008152600401611b3290614c4b565b60405180910390fd5b60006008600088815260200190815260200160002060003373ffffffffffffffffffffffffffffffffffffffff1673ffffffffffffffffffffffffffffffffffffffff1681526020019081526020016000205414611bce576040517f08c379a0000000000000000000000000000000000000000000000000000000008152600401611bc590614e41565b60405180910390fd5b6000600560003373ffffffffffffffffffffffffffffffffffffffff1673ffffffffffffffffffffffffffffffffffffffff1681526020019081526020016000206040518060a001604052908160008201548152602001600182018054611c3490614a64565b80601f0160208091040260200160405190810160405280929190818152602001828054611c6090614a64565b8015611cad5780601f10611c8257610100808354040283529160200191611cad565b820191906000526020600020905b815481529060010190602001808311611c9057829003601f168201915b505050505081526020016002820160009054906101000a900460ff161515151581526020016002820160019054906101000a900463ffffffff1663ffffffff1663ffffffff1681526020016003820154815250509050806040015115611d48576040517f08c379a0000000000000000000000000000000000000000000000000000000008152600401611d3f90614cb7565b60405180910390fd5b60006001600089815260200190815260200160002090508060060154871115611da6576040517f08c379a0000000000000000000000000000000000000000000000000000000008152600401611d9d90614ead565b60405180910390fd5b80600801339080600181540180825580915050600190039060005260206000200160009091909190916101000a81548173ffffffffffffffffffffffffffffffffffffffff021916908373ffffffffffffffffffffffffffffffffffffffff16021790555086600860008a815260200190815260200160002060003373ffffffffffffffffffffffffffffffffffffffff1673ffffffffffffffffffffffffffffffffffffffff168152602001908152602001600020819055506000600760008a81526020019081526020016000209050600073ffffffffffffffffffffffffffffffffffffffff168160010160009054906101000a900473ffffffffffffffffffffffffffffffffffffffff1673ffffffffffffffffffffffffffffffffffffffff1603611f2057878160000181905550338160010160006101000a81548173ffffffffffffffffffffffffffffffffffffffff021916908373ffffffffffffffffffffffffffffffffffffffff16021790555061204c565b8060010160009054906101000a900473ffffffffffffffffffffffffffffffffffffffff1673ffffffffffffffffffffffffffffffffffffffff163373ffffffffffffffffffffffffffffffffffffffff16148015611f825750806000015488105b15611f955787816000018190555061204b565b8060010160009054906101000a900473ffffffffffffffffffffffffffffffffffffffff1673ffffffffffffffffffffffffffffffffffffffff163373ffffffffffffffffffffffffffffffffffffffff1614158015611ff85750806000015488105b1561204a57878160000181905550338160010160006101000a81548173ffffffffffffffffffffffffffffffffffffffff021916908373ffffffffffffffffffffffffffffffffffffffff1602179055505b5b5b87893373ffffffffffffffffffffffffffffffffffffffff167fb966920fc23b826292c3b95c956eba748e6d42aa61e638077a6b372c37fb5fd060405160405180910390a4505050505050505050565b60036020528060005260406000206000915090505481565b6000600360003373ffffffffffffffffffffffffffffffffffffffff1673ffffffffffffffffffffffffffffffffffffffff16815260200190815260200160002054600260003373ffffffffffffffffffffffffffffffffffffffff1673ffffffffffffffffffffffffffffffffffffffff168152602001908152602001600020546121409190614d06565b905090565b60066020528060005260406000206000915054906101000a900460ff1681565b60005481565b600560205280600052604060002060009150905080600001549080600101805461219490614a64565b80601f01602080910402602001604051908101604052809291908181526020018280546121c090614a64565b801561220d5780601f106121e25761010080835404028352916020019161220d565b820191906000526020600020905b8154815290600101906020018083116121f057829003601f168201915b5050505050908060020160009054906101000a900460ff16908060020160019054906101000a900463ffffffff16908060030154905085565b60006122506120b4565b905060008111612295576040517f08c379a000000000000000000000000000000000000000000000000000000000815260040161228c90614f19565b60405180910390fd5b80600260003373ffffffffffffffffffffffffffffffffffffffff1673ffffffffffffffffffffffffffffffffffffffff16815260200190815260200160002060008282546122e49190614d06565b925050819055503373ffffffffffffffffffffffffffffffffffffffff166108fc829081150290604051600060405180830381858888f19350505050158015612331573d6000803e3d6000fd5b503373ffffffffffffffffffffffffffffffffffffffff167fa3726dd60c21a246af338c5e052724c05dbc8e0025f55134cd9eff6347a1787b8260405161237891906144c5565b60405180910390a250565b60076020528060005260406000206000915090508060000154908060010160009054906101000a900473ffffffffffffffffffffffffffffffffffffffff16905082565b600660003373ffffffffffffffffffffffffffffffffffffffff1673ffffffffffffffffffffffffffffffffffffffff16815260200190815260200160002060009054906101000a900460ff1615612454576040517f08c379a000000000000000000000000000000000000000000000000000000000815260040161244b90614f85565b60405180910390fd5b60004290506004600081548092919061246c90614fa5565b91905055506040518060a0016040528060045481526020018381526020016000151581526020018263ffffffff1681526020016000815250600560003373ffffffffffffffffffffffffffffffffffffffff1673ffffffffffffffffffffffffffffffffffffffff1681526020019081526020016000206000820151816000015560208201518160010190816125029190615199565b5060408201518160020160006101000a81548160ff02191690831515021790555060608201518160020160016101000a81548163ffffffff021916908363ffffffff160217905550608082015181600301559050506001600660003373ffffffffffffffffffffffffffffffffffffffff1673ffffffffffffffffffffffffffffffffffffffff16815260200190815260200160002060006101000a81548160ff0219169083151502179055503373ffffffffffffffffffffffffffffffffffffffff167fffb11e36e77ea108d66be149530c02c07e3b66d51fa509903b519bed010f1bde836004546040516125f992919061526b565b60405180910390a25050565b80600060016000838152602001908152602001600020604051806101a00160405290816000820154815260200160018201805461264190614a64565b80601f016020809104026020016040519081016040528092919081815260200182805461266d90614a64565b80156126ba5780601f1061268f576101008083540402835291602001916126ba565b820191906000526020600020905b81548152906001019060200180831161269d57829003601f168201915b505050505081526020016002820180546126d390614a64565b80601f01602080910402602001604051908101604052809291908181526020018280546126ff90614a64565b801561274c5780601f106127215761010080835404028352916020019161274c565b820191906000526020600020905b81548152906001019060200180831161272f57829003601f168201915b505050505081526020016003820160009054906101000a900473ffffffffffffffffffffffffffffffffffffffff1673ffffffffffffffffffffffffffffffffffffffff1673ffffffffffffffffffffffffffffffffffffffff1681526020016004820160009054906101000a900473ffffffffffffffffffffffffffffffffffffffff1673ffffffffffffffffffffffffffffffffffffffff1673ffffffffffffffffffffffffffffffffffffffff1681526020016004820160149054906101000a900460ff161515151581526020016004820160159054906101000a900460ff161515151581526020016004820160169054906101000a900463ffffffff1663ffffffff1663ffffffff16815260200160048201601a9054906101000a900463ffffffff1663ffffffff1663ffffffff1681526020016005820160009054906101000a900463ffffffff1663ffffffff1663ffffffff16815260200160068201548152602001600782015481526020016008820180548060200260200160405190810160405280929190818152602001828054801561294257602002820191906000526020600020905b8160009054906101000a900473ffffffffffffffffffffffffffffffffffffffff1673ffffffffffffffffffffffffffffffffffffffff16815260200190600101908083116128f8575b5050505050815250509050806080015173ffffffffffffffffffffffffffffffffffffffff163373ffffffffffffffffffffffffffffffffffffffff16146129bf576040517f08c379a00000000000000000000000000000000000000000000000000000000081526004016129b6906152e7565b60405180910390fd5b82600060016000838152602001908152602001600020604051806101a0016040529081600082015481526020016001820180546129fb90614a64565b80601f0160208091040260200160405190810160405280929190818152602001828054612a2790614a64565b8015612a745780601f10612a4957610100808354040283529160200191612a74565b820191906000526020600020905b815481529060010190602001808311612a5757829003601f168201915b50505050508152602001600282018054612a8d90614a64565b80601f0160208091040260200160405190810160405280929190818152602001828054612ab990614a64565b8015612b065780601f10612adb57610100808354040283529160200191612b06565b820191906000526020600020905b815481529060010190602001808311612ae957829003601f168201915b505050505081526020016003820160009054906101000a900473ffffffffffffffffffffffffffffffffffffffff1673ffffffffffffffffffffffffffffffffffffffff1673ffffffffffffffffffffffffffffffffffffffff1681526020016004820160009054906101000a900473ffffffffffffffffffffffffffffffffffffffff1673ffffffffffffffffffffffffffffffffffffffff1673ffffffffffffffffffffffffffffffffffffffff1681526020016004820160149054906101000a900460ff161515151581526020016004820160159054906101000a900460ff161515151581526020016004820160169054906101000a900463ffffffff1663ffffffff1663ffffffff16815260200160048201601a9054906101000a900463ffffffff1663ffffffff1663ffffffff1681526020016005820160009054906101000a900463ffffffff1663ffffffff1663ffffffff168152602001600682015481526020016007820154815260200160088201805480602002602001604051908101604052809291908181526020018280548015612cfc57602002820191906000526020600020905b8160009054906101000a900473ffffffffffffffffffffffffffffffffffffffff1673ffffffffffffffffffffffffffffffffffffffff1681526020019060010190808311612cb2575b50505050508152505090508060a0015115612d4c576040517f08c379a0000000000000000000000000000000000000000000000000000000008152600401612d4390615353565b60405180910390fd5b6000429050600060016000888152602001908152602001600020905060018160040160146101000a81548160ff021916908315150217905550818160050160006101000a81548163ffffffff021916908363ffffffff1602179055506000600560003373ffffffffffffffffffffffffffffffffffffffff1673ffffffffffffffffffffffffffffffffffffffff168152602001908152602001600020905060008160020160006101000a81548160ff021916908315150217905550806003016000815480929190612e1d90614fa5565b91905055506000600860008a815260200190815260200160002060003373ffffffffffffffffffffffffffffffffffffffff1673ffffffffffffffffffffffffffffffffffffffff16815260200190815260200160002054905080600360008560030160009054906101000a900473ffffffffffffffffffffffffffffffffffffffff1673ffffffffffffffffffffffffffffffffffffffff1673ffffffffffffffffffffffffffffffffffffffff1681526020019081526020016000206000828254612eea9190614d06565b9250508190555080600260008560030160009054906101000a900473ffffffffffffffffffffffffffffffffffffffff1673ffffffffffffffffffffffffffffffffffffffff1673ffffffffffffffffffffffffffffffffffffffff1681526020019081526020016000206000828254612f649190614d06565b925050819055503373ffffffffffffffffffffffffffffffffffffffff166108fc829081150290604051600060405180830381858888f19350505050158015612fb1573d6000803e3d6000fd5b50883373ffffffffffffffffffffffffffffffffffffffff167fb9c4a64e10c10a2b4e69d3a70150dee1cd8c6796850d32fa7db8aa81d3304e4383604051612ff991906144c5565b60405180910390a3505050505050505050565b80346130166120b4565b6130209190615373565b1015613061576040517f08c379a0000000000000000000000000000000000000000000000000000000008152600401613058906153f3565b60405180910390fd5b600042905060008081548092919061307890614fa5565b91905055506000600160008054815260200190815260200160002090506000548160000181905550848160010190816130b19190615199565b50838160020190816130c39190615199565b50338160030160006101000a81548173ffffffffffffffffffffffffffffffffffffffff021916908373ffffffffffffffffffffffffffffffffffffffff16021790555060008160040160006101000a81548173ffffffffffffffffffffffffffffffffffffffff021916908373ffffffffffffffffffffffffffffffffffffffff16021790555060008160040160146101000a81548160ff02191690831515021790555060018160040160156101000a81548160ff021916908315150217905550818160040160166101000a81548163ffffffff021916908363ffffffff160217905550600081600401601a6101000a81548163ffffffff021916908363ffffffff16021790555060008160050160006101000a81548163ffffffff021916908363ffffffff1602179055508281600601819055506000816007018190555034600260003373ffffffffffffffffffffffffffffffffffffffff1673ffffffffffffffffffffffffffffffffffffffff16815260200190815260200160002060008282546132529190615373565b9250508190555082600360003373ffffffffffffffffffffffffffffffffffffffff1673ffffffffffffffffffffffffffffffffffffffff16815260200190815260200160002060008282546132a89190615373565b92505081905550846040516132bd919061544f565b6040518091039020833373ffffffffffffffffffffffffffffffffffffffff167fdd6225889bfa804e10e994e2db425523713c09f1c6c6a0517a906dabd4df173460005460405161330e91906144c5565b60405180910390a45050505050565b60045481565b6060600060016000848152602001908152602001600020604051806101a00160405290816000820154815260200160018201805461336090614a64565b80601f016020809104026020016040519081016040528092919081815260200182805461338c90614a64565b80156133d95780601f106133ae576101008083540402835291602001916133d9565b820191906000526020600020905b8154815290600101906020018083116133bc57829003601f168201915b505050505081526020016002820180546133f290614a64565b80601f016020809104026020016040519081016040528092919081815260200182805461341e90614a64565b801561346b5780601f106134405761010080835404028352916020019161346b565b820191906000526020600020905b81548152906001019060200180831161344e57829003601f168201915b505050505081526020016003820160009054906101000a900473ffffffffffffffffffffffffffffffffffffffff1673ffffffffffffffffffffffffffffffffffffffff1673ffffffffffffffffffffffffffffffffffffffff1681526020016004820160009054906101000a900473ffffffffffffffffffffffffffffffffffffffff1673ffffffffffffffffffffffffffffffffffffffff1673ffffffffffffffffffffffffffffffffffffffff1681526020016004820160149054906101000a900460ff161515151581526020016004820160159054906101000a900460ff161515151581526020016004820160169054906101000a900463ffffffff1663ffffffff1663ffffffff16815260200160048201601a9054906101000a900463ffffffff1663ffffffff1663ffffffff1681526020016005820160009054906101000a900463ffffffff1663ffffffff1663ffffffff16815260200160068201548152602001600782015481526020016008820180548060200260200160405190810160405280929190818152602001828054801561366157602002820191906000526020600020905b8160009054906101000a900473ffffffffffffffffffffffffffffffffffffffff1673ffffffffffffffffffffffffffffffffffffffff1681526020019060010190808311613617575b5050505050815250509050806101800151915050919050565b60016020528060005260406000206000915090508060000154908060010180546136a390614a64565b80601f01602080910402602001604051908101604052809291908181526020018280546136cf90614a64565b801561371c5780601f106136f15761010080835404028352916020019161371c565b820191906000526020600020905b8154815290600101906020018083116136ff57829003601f168201915b50505050509080600201805461373190614a64565b80601f016020809104026020016040519081016040528092919081815260200182805461375d90614a64565b80156137aa5780601f1061377f576101008083540402835291602001916137aa565b820191906000526020600020905b81548152906001019060200180831161378d57829003601f168201915b5050505050908060030160009054906101000a900473ffffffffffffffffffffffffffffffffffffffff16908060040160009054906101000a900473ffffffffffffffffffffffffffffffffffffffff16908060040160149054906101000a900460ff16908060040160159054906101000a900460ff16908060040160169054906101000a900463ffffffff169080600401601a9054906101000a900463ffffffff16908060050160009054906101000a900463ffffffff1690806006015490806007015490508c565b81600060016000838152602001908152602001600020604051806101a0016040529081600082015481526020016001820180546138b090614a64565b80601f01602080910402602001604051908101604052809291908181526020018280546138dc90614a64565b80156139295780601f106138fe57610100808354040283529160200191613929565b820191906000526020600020905b81548152906001019060200180831161390c57829003601f168201915b5050505050815260200160028201805461394290614a64565b80601f016020809104026020016040519081016040528092919081815260200182805461396e90614a64565b80156139bb5780601f10613990576101008083540402835291602001916139bb565b820191906000526020600020905b81548152906001019060200180831161399e57829003601f168201915b505050505081526020016003820160009054906101000a900473ffffffffffffffffffffffffffffffffffffffff1673ffffffffffffffffffffffffffffffffffffffff1673ffffffffffffffffffffffffffffffffffffffff1681526020016004820160009054906101000a900473ffffffffffffffffffffffffffffffffffffffff1673ffffffffffffffffffffffffffffffffffffffff1673ffffffffffffffffffffffffffffffffffffffff1681526020016004820160149054906101000a900460ff161515151581526020016004820160159054906101000a900460ff161515151581526020016004820160169054906101000a900463ffffffff1663ffffffff1663ffffffff16815260200160048201601a9054906101000a900463ffffffff1663ffffffff1663ffffffff1681526020016005820160009054906101000a900463ffffffff1663ffffffff1663ffffffff168152602001600682015481526020016007820154815260200160088201805480602002602001604051908101604052809291908181526020018280548015613bb157602002820191906000526020600020905b8160009054906101000a900473ffffffffffffffffffffffffffffffffffffffff1673ffffffffffffffffffffffffffffffffffffffff1681526020019060010190808311613b67575b5050505050815250509050806060015173ffffffffffffffffffffffffffffffffffffffff163373ffffffffffffffffffffffffffffffffffffffff1603613c2e576040517f08c379a0000000000000000000000000000000000000000000000000000000008152600401613c2590614dd5565b60405180910390fd5b83600060016000838152602001908152602001600020604051806101a001604052908160008201548152602001600182018054613c6a90614a64565b80601f0160208091040260200160405190810160405280929190818152602001828054613c9690614a64565b8015613ce35780601f10613cb857610100808354040283529160200191613ce3565b820191906000526020600020905b815481529060010190602001808311613cc657829003601f168201915b50505050508152602001600282018054613cfc90614a64565b80601f0160208091040260200160405190810160405280929190818152602001828054613d2890614a64565b8015613d755780601f10613d4a57610100808354040283529160200191613d75565b820191906000526020600020905b815481529060010190602001808311613d5857829003601f168201915b505050505081526020016003820160009054906101000a900473ffffffffffffffffffffffffffffffffffffffff1673ffffffffffffffffffffffffffffffffffffffff1673ffffffffffffffffffffffffffffffffffffffff1681526020016004820160009054906101000a900473ffffffffffffffffffffffffffffffffffffffff1673ffffffffffffffffffffffffffffffffffffffff1673ffffffffffffffffffffffffffffffffffffffff1681526020016004820160149054906101000a900460ff161515151581526020016004820160159054906101000a900460ff161515151581526020016004820160169054906101000a900463ffffffff1663ffffffff1663ffffffff16815260200160048201601a9054906101000a900463ffffffff1663ffffffff1663ffffffff1681526020016005820160009054906101000a900463ffffffff1663ffffffff1663ffffffff168152602001600682015481526020016007820154815260200160088201805480602002602001604051908101604052809291908181526020018280548015613f6b57602002820191906000526020600020905b8160009054906101000a900473ffffffffffffffffffffffffffffffffffffffff1673ffffffffffffffffffffffffffffffffffffffff1681526020019060010190808311613f21575b50505050508152505090508060c00151613fba576040517f08c379a0000000000000000000000000000000000000000000000000000000008152600401613fb190614ae1565b60405180910390fd5b600660003373ffffffffffffffffffffffffffffffffffffffff1673ffffffffffffffffffffffffffffffffffffffff16815260200190815260200160002060009054906101000a900460ff16614046576040517f08c379a000000000000000000000000000000000000000000000000000000000815260040161403d90614c4b565b60405180910390fd5b60006008600088815260200190815260200160002060003373ffffffffffffffffffffffffffffffffffffffff1673ffffffffffffffffffffffffffffffffffffffff16815260200190815260200160002054036140d9576040517f08c379a00000000000000000000000000000000000000000000000000000000081526004016140d0906154b2565b60405180910390fd5b6008600087815260200190815260200160002060003373ffffffffffffffffffffffffffffffffffffffff1673ffffffffffffffffffffffffffffffffffffffff16815260200190815260200160002054851061416b576040517f08c379a00000000000000000000000000000000000000000000000000000000081526004016141629061551e565b60405180910390fd5b60006008600088815260200190815260200160002060003373ffffffffffffffffffffffffffffffffffffffff1673ffffffffffffffffffffffffffffffffffffffff16815260200190815260200160002054905060006007600089815260200190815260200160002090508060010160009054906101000a900473ffffffffffffffffffffffffffffffffffffffff1673ffffffffffffffffffffffffffffffffffffffff163373ffffffffffffffffffffffffffffffffffffffff161415801561423a5750806000015487105b1561429057868160000181905550338160010160006101000a81548173ffffffffffffffffffffffffffffffffffffffff021916908373ffffffffffffffffffffffffffffffffffffffff16021790555061429a565b8681600001819055505b86600860008a815260200190815260200160002060003373ffffffffffffffffffffffffffffffffffffffff1673ffffffffffffffffffffffffffffffffffffffff1681526020019081526020016000208190555086883373ffffffffffffffffffffffffffffffffffffffff167f68cd473c325a0d2c51d6c8b7319220827cbca47eee1719f47eae749506123a028560405161433791906144c5565b60405180910390a45050505050505050565b60026020528060005260406000206000915090505481565b6000604051905090565b600080fd5b600080fd5b6000819050919050565b61438881614375565b811461439357600080fd5b50565b6000813590506143a58161437f565b92915050565b600073ffffffffffffffffffffffffffffffffffffffff82169050919050565b60006143d6826143ab565b9050919050565b6143e6816143cb565b81146143f157600080fd5b50565b600081359050614403816143dd565b92915050565b600080604083850312156144205761441f61436b565b5b600061442e85828601614396565b925050602061443f858286016143f4565b9150509250929050565b600080604083850312156144605761445f61436b565b5b600061446e85828601614396565b925050602061447f85828601614396565b9150509250929050565b60006020828403121561449f5761449e61436b565b5b60006144ad848285016143f4565b91505092915050565b6144bf81614375565b82525050565b60006020820190506144da60008301846144b6565b92915050565b60008115159050919050565b6144f5816144e0565b82525050565b600060208201905061451060008301846144ec565b92915050565b600081519050919050565b600082825260208201905092915050565b60005b83811015614550578082015181840152602081019050614535565b60008484015250505050565b6000601f19601f8301169050919050565b600061457882614516565b6145828185614521565b9350614592818560208601614532565b61459b8161455c565b840191505092915050565b600063ffffffff82169050919050565b6145bf816145a6565b82525050565b600060a0820190506145da60008301886144b6565b81810360208301526145ec818761456d565b90506145fb60408301866144ec565b61460860608301856145b6565b61461560808301846144b6565b9695505050505050565b6000602082840312156146355761463461436b565b5b600061464384828501614396565b91505092915050565b614655816143cb565b82525050565b600060408201905061467060008301856144b6565b61467d602083018461464c565b9392505050565b600080fd5b600080fd5b7f4e487b7100000000000000000000000000000000000000000000000000000000600052604160045260246000fd5b6146c68261455c565b810181811067ffffffffffffffff821117156146e5576146e461468e565b5b80604052505050565b60006146f8614361565b905061470482826146bd565b919050565b600067ffffffffffffffff8211156147245761472361468e565b5b61472d8261455c565b9050602081019050919050565b82818337600083830152505050565b600061475c61475784614709565b6146ee565b90508281526020810184848401111561477857614777614689565b5b61478384828561473a565b509392505050565b600082601f8301126147a05761479f614684565b5b81356147b0848260208601614749565b91505092915050565b6000602082840312156147cf576147ce61436b565b5b600082013567ffffffffffffffff8111156147ed576147ec614370565b5b6147f98482850161478b565b91505092915050565b60008060006060848603121561481b5761481a61436b565b5b600084013567ffffffffffffffff81111561483957614838614370565b5b6148458682870161478b565b935050602084013567ffffffffffffffff81111561486657614865614370565b5b6148728682870161478b565b925050604061488386828701614396565b9150509250925092565b600081519050919050565b600082825260208201905092915050565b6000819050602082019050919050565b6148c2816143cb565b82525050565b60006148d483836148b9565b60208301905092915050565b6000602082019050919050565b60006148f88261488d565b6149028185614898565b935061490d836148a9565b8060005b8381101561493e57815161492588826148c8565b9750614930836148e0565b925050600181019050614911565b5085935050505092915050565b6000602082019050818103600083015261496581846148ed565b905092915050565b600061018082019050614983600083018f6144b6565b8181036020830152614995818e61456d565b905081810360408301526149a9818d61456d565b90506149b8606083018c61464c565b6149c5608083018b61464c565b6149d260a083018a6144ec565b6149df60c08301896144ec565b6149ec60e08301886145b6565b6149fa6101008301876145b6565b614a086101208301866145b6565b614a166101408301856144b6565b614a246101608301846144b6565b9d9c50505050505050505050505050565b7f4e487b7100000000000000000000000000000000000000000000000000000000600052602260045260246000fd5b60006002820490506001821680614a7c57607f821691505b602082108103614a8f57614a8e614a35565b5b50919050565b7f4a6f6220646f6573206e6f74206578697374732e000000000000000000000000600082015250565b6000614acb601483614521565b9150614ad682614a95565b602082019050919050565b60006020820190508181036000830152614afa81614abe565b9050919050565b7f4f6e6c79206f776e6572206f6620746865206a6f622077696c6c20616363657060008201527f7420746865206269642e00000000000000000000000000000000000000000000602082015250565b6000614b5d602a83614521565b9150614b6882614b01565b604082019050919050565b60006020820190508181036000830152614b8c81614b50565b9050919050565b7f576f726b657220616c72656164792061737369676e65642e0000000000000000600082015250565b6000614bc9601883614521565b9150614bd482614b93565b602082019050919050565b60006020820190508181036000830152614bf881614bbc565b9050919050565b7f496e76616c6964576f726b657200000000000000000000000000000000000000600082015250565b6000614c35600d83614521565b9150614c4082614bff565b602082019050919050565b60006020820190508181036000830152614c6481614c28565b9050919050565b7f416c7265616479576f726b696e67000000000000000000000000000000000000600082015250565b6000614ca1600e83614521565b9150614cac82614c6b565b602082019050919050565b60006020820190508181036000830152614cd081614c94565b9050919050565b7f4e487b7100000000000000000000000000000000000000000000000000000000600052601160045260246000fd5b6000614d1182614375565b9150614d1c83614375565b9250828203905081811115614d3457614d33614cd7565b5b92915050565b6000604082019050614d4f60008301856144b6565b614d5c60208301846144b6565b9392505050565b7f4a6f62206f776e6572206e6f7420616c6c6f77656420746f20706c616365206260008201527f69642e0000000000000000000000000000000000000000000000000000000000602082015250565b6000614dbf602383614521565b9150614dca82614d63565b604082019050919050565b60006020820190508181036000830152614dee81614db2565b9050919050565b7f416c726561647942696465640000000000000000000000000000000000000000600082015250565b6000614e2b600c83614521565b9150614e3682614df5565b602082019050919050565b60006020820190508181036000830152614e5a81614e1e565b9050919050565b7f4f76657242756467657400000000000000000000000000000000000000000000600082015250565b6000614e97600a83614521565b9150614ea282614e61565b602082019050919050565b60006020820190508181036000830152614ec681614e8a565b9050919050565b7f4e6f2065787472612046756e642e000000000000000000000000000000000000600082015250565b6000614f03600e83614521565b9150614f0e82614ecd565b602082019050919050565b60006020820190508181036000830152614f3281614ef6565b9050919050565b7f416c7265616479576f726b657200000000000000000000000000000000000000600082015250565b6000614f6f600d83614521565b9150614f7a82614f39565b602082019050919050565b60006020820190508181036000830152614f9e81614f62565b9050919050565b6000614fb082614375565b91507fffffffffffffffffffffffffffffffffffffffffffffffffffffffffffffffff8203614fe257614fe1614cd7565b5b600182019050919050565b60008190508160005260206000209050919050565b60006020601f8301049050919050565b600082821b905092915050565b60006008830261504f7fffffffffffffffffffffffffffffffffffffffffffffffffffffffffffffffff82615012565b6150598683615012565b95508019841693508086168417925050509392505050565b6000819050919050565b600061509661509161508c84614375565b615071565b614375565b9050919050565b6000819050919050565b6150b08361507b565b6150c46150bc8261509d565b84845461501f565b825550505050565b600090565b6150d96150cc565b6150e48184846150a7565b505050565b5b81811015615108576150fd6000826150d1565b6001810190506150ea565b5050565b601f82111561514d5761511e81614fed565b61512784615002565b81016020851015615136578190505b61514a61514285615002565b8301826150e9565b50505b505050565b600082821c905092915050565b600061517060001984600802615152565b1980831691505092915050565b6000615189838361515f565b9150826002028217905092915050565b6151a282614516565b67ffffffffffffffff8111156151bb576151ba61468e565b5b6151c58254614a64565b6151d082828561510c565b600060209050601f83116001811461520357600084156151f1578287015190505b6151fb858261517d565b865550615263565b601f19841661521186614fed565b60005b8281101561523957848901518255600182019150602085019450602081019050615214565b868310156152565784890151615252601f89168261515f565b8355505b6001600288020188555050505b505050505050565b60006040820190508181036000830152615285818561456d565b905061529460208301846144b6565b9392505050565b7f4f6e6c79206a6f6220776f726b657220616c6c6f7765642e0000000000000000600082015250565b60006152d1601883614521565b91506152dc8261529b565b602082019050919050565b60006020820190508181036000830152615300816152c4565b9050919050565b7f4a6f6220616c726561647920636f6d706c657465642e00000000000000000000600082015250565b600061533d601683614521565b915061534882615307565b602082019050919050565b6000602082019050818103600083015261536c81615330565b9050919050565b600061537e82614375565b915061538983614375565b92508282019050808211156153a1576153a0614cd7565b5b92915050565b7f496e73756666696369656e742042616c616e63652e0000000000000000000000600082015250565b60006153dd601583614521565b91506153e8826153a7565b602082019050919050565b6000602082019050818103600083015261540c816153d0565b9050919050565b600081905092915050565b600061542982614516565b6154338185615413565b9350615443818560208601614532565b80840191505092915050565b600061545b828461541e565b915081905092915050565b7f4e6f744269646564000000000000000000000000000000000000000000000000600082015250565b600061549c600883614521565b91506154a782615466565b602082019050919050565b600060208201905081810360008301526154cb8161548f565b9050919050565b7f477265617465725468616e50726576696f757342696400000000000000000000600082015250565b6000615508601683614521565b9150615513826154d2565b602082019050919050565b60006020820190508181036000830152615537816154fb565b905091905056fea2646970667358221220144eab07f1839890127814b2c7df3b928ce64ed95ffdc559d4aeefb180663de864736f6c63430008110033",
  "immutableReferences": {},
  "source": "// SPDX-License-Identifier: MIT\r\npragma solidity >=0.8.4 <0.9.0;\r\n\r\nimport './jobs/Jobs.sol';\r\nimport './workers/Workers.sol';\r\n\r\ncontract JobMarket is Jobs, Workers{\r\n\r\n    constructor() Jobs() Workers(){}\r\n}",
  "sourcePath": "C:\\Users\\Neosoft\\Desktop\\NeoSoft\\POC\\truffle\\decentralized-job-market\\contracts\\JobMarket.sol",
  "compiler": {
    "name": "solc",
    "version": "0.8.17+commit.8df45f5f.Emscripten.clang"
  },
  "schemaVersion": "3.4.10",
  "updatedAt": "2022-11-11T09:47:54.992Z",
  "networkType": "ethereum",
  "devdoc": {
    "kind": "dev",
    "methods": {},
    "version": 1
  },
  "userdoc": {
    "kind": "user",
    "methods": {},
    "version": 1
  }
}