{
  "contractName": "JobMarket",
  "abi": [
    {
      "inputs": [],
      "stateMutability": "nonpayable",
      "type": "constructor"
    },
    {
      "inputs": [],
      "name": "AlreadyBided",
      "type": "error"
    },
    {
      "inputs": [],
      "name": "AlreadyWorker",
      "type": "error"
    },
    {
      "inputs": [],
      "name": "AlreadyWorking",
      "type": "error"
    },
    {
      "inputs": [],
      "name": "GreaterThanPreviousBid",
      "type": "error"
    },
    {
      "inputs": [],
      "name": "InvalidWorker",
      "type": "error"
    },
    {
      "inputs": [],
      "name": "NotBided",
      "type": "error"
    },
    {
      "inputs": [],
      "name": "OverBudget",
      "type": "error"
    },
    {
      "anonymous": false,
      "inputs": [
        {
          "indexed": true,
          "internalType": "address",
          "name": "_jobOwner",
          "type": "address"
        },
        {
          "indexed": true,
          "internalType": "address",
          "name": "_jobWorker",
          "type": "address"
        },
        {
          "indexed": false,
          "internalType": "uint256",
          "name": "_jobId",
          "type": "uint256"
        },
        {
          "indexed": false,
          "internalType": "uint256",
          "name": "_bidAmount",
          "type": "uint256"
        }
      ],
      "name": "BidAccepted",
      "type": "event"
    },
    {
      "anonymous": false,
      "inputs": [
        {
          "indexed": true,
          "internalType": "address",
          "name": "_workerAdd",
          "type": "address"
        },
        {
          "indexed": true,
          "internalType": "uint256",
          "name": "_jobId",
          "type": "uint256"
        },
        {
          "indexed": true,
          "internalType": "uint256",
          "name": "_bidAmount",
          "type": "uint256"
        },
        {
          "indexed": false,
          "internalType": "uint256",
          "name": "_prevBidAmount",
          "type": "uint256"
        }
      ],
      "name": "BidModifiedSuccessfully",
      "type": "event"
    },
    {
      "anonymous": false,
      "inputs": [
        {
          "indexed": true,
          "internalType": "address",
          "name": "_jobOwner",
          "type": "address"
        },
        {
          "indexed": true,
          "internalType": "uint256",
          "name": "_jobBudget",
          "type": "uint256"
        },
        {
          "indexed": true,
          "internalType": "string",
          "name": "_jobName",
          "type": "string"
        },
        {
          "indexed": false,
          "internalType": "uint256",
          "name": "_jobId",
          "type": "uint256"
        }
      ],
      "name": "JobRegistered",
      "type": "event"
    },
    {
      "anonymous": false,
      "inputs": [
        {
          "indexed": true,
          "internalType": "address",
          "name": "_workerAdd",
          "type": "address"
        },
        {
          "indexed": true,
          "internalType": "uint256",
          "name": "_jobId",
          "type": "uint256"
        },
        {
          "indexed": true,
          "internalType": "uint256",
          "name": "_bidAmount",
          "type": "uint256"
        }
      ],
      "name": "SuccessfullyBid",
      "type": "event"
    },
    {
      "anonymous": false,
      "inputs": [
        {
          "indexed": true,
          "internalType": "address",
          "name": "_worker",
          "type": "address"
        },
        {
          "indexed": false,
          "internalType": "string",
          "name": "_workerName",
          "type": "string"
        },
        {
          "indexed": false,
          "internalType": "uint256",
          "name": "_workerId",
          "type": "uint256"
        }
      ],
      "name": "WorkerRegister",
      "type": "event"
    },
    {
      "inputs": [
        {
          "internalType": "uint256",
          "name": "_jobId",
          "type": "uint256"
        },
        {
          "internalType": "address",
          "name": "_workerAdd",
          "type": "address"
        }
      ],
      "name": "acceptBid",
      "outputs": [],
      "stateMutability": "nonpayable",
      "type": "function"
    },
    {
      "inputs": [
        {
          "internalType": "uint256",
          "name": "_jobId",
          "type": "uint256"
        },
        {
          "internalType": "uint256",
          "name": "_bidAmount",
          "type": "uint256"
        }
      ],
      "name": "bidJob",
      "outputs": [],
      "stateMutability": "nonpayable",
      "type": "function"
    },
    {
      "inputs": [
        {
          "internalType": "uint256",
          "name": "_jobId",
          "type": "uint256"
        }
      ],
      "name": "jobDone",
      "outputs": [],
      "stateMutability": "nonpayable",
      "type": "function"
    },
    {
      "inputs": [
        {
          "internalType": "uint256",
          "name": "_jobId",
          "type": "uint256"
        },
        {
          "internalType": "uint256",
          "name": "_bidAmount",
          "type": "uint256"
        }
      ],
      "name": "modifyBid",
      "outputs": [],
      "stateMutability": "nonpayable",
      "type": "function"
    },
    {
      "inputs": [
        {
          "internalType": "string",
          "name": "_jobName",
          "type": "string"
        },
        {
          "internalType": "string",
          "name": "_jobDescription",
          "type": "string"
        }
      ],
      "name": "registerJob",
      "outputs": [],
      "stateMutability": "payable",
      "type": "function"
    },
    {
      "inputs": [
        {
          "internalType": "string",
          "name": "_workerName",
          "type": "string"
        }
      ],
      "name": "registerWorker",
      "outputs": [],
      "stateMutability": "nonpayable",
      "type": "function"
    }
  ],
  "bytecode": "0x608060405234801561001057600080fd5b50613363806100206000396000f3fe6080604052600436106100555760003560e01c8063020686641461005a5780631e14e8e11461008357806380c8f4fa146100ac57806381cdcd38146100d5578063ded9b21e146100fe578063fed6def914610127575b600080fd5b34801561006657600080fd5b50610081600480360381019061007c9190612827565b610143565b005b34801561008f57600080fd5b506100aa60048036038101906100a59190612867565b6108d7565b005b3480156100b857600080fd5b506100d360048036038101906100ce91906129ed565b6111c5565b005b3480156100e157600080fd5b506100fc60048036038101906100f79190612a36565b6113fa565b005b34801561010a57600080fd5b5061012560048036038101906101209190612867565b611d6e565b005b610141600480360381019061013c9190612a63565b6124e1565b005b81600060016000838152602001908152602001600020604051806101800160405290816000820154815260200160018201805461017f90612b0a565b80601f01602080910402602001604051908101604052809291908181526020018280546101ab90612b0a565b80156101f85780601f106101cd576101008083540402835291602001916101f8565b820191906000526020600020905b8154815290600101906020018083116101db57829003601f168201915b5050505050815260200160028201805461021190612b0a565b80601f016020809104026020016040519081016040528092919081815260200182805461023d90612b0a565b801561028a5780601f1061025f5761010080835404028352916020019161028a565b820191906000526020600020905b81548152906001019060200180831161026d57829003601f168201915b505050505081526020016003820160009054906101000a900473ffffffffffffffffffffffffffffffffffffffff1673ffffffffffffffffffffffffffffffffffffffff1673ffffffffffffffffffffffffffffffffffffffff1681526020016004820160009054906101000a900473ffffffffffffffffffffffffffffffffffffffff1673ffffffffffffffffffffffffffffffffffffffff1673ffffffffffffffffffffffffffffffffffffffff1681526020016004820160149054906101000a900460ff161515151581526020016004820160159054906101000a900460ff161515151581526020016004820160169054906101000a900463ffffffff1663ffffffff1663ffffffff16815260200160048201601a9054906101000a900463ffffffff1663ffffffff1663ffffffff1681526020016005820160009054906101000a900463ffffffff1663ffffffff1663ffffffff168152602001600682015481526020016007820180548060200260200160405190810160405280929190818152602001828054801561047657602002820191906000526020600020905b8160009054906101000a900473ffffffffffffffffffffffffffffffffffffffff1673ffffffffffffffffffffffffffffffffffffffff168152602001906001019080831161042c575b5050505050815250509050806060015173ffffffffffffffffffffffffffffffffffffffff163373ffffffffffffffffffffffffffffffffffffffff16146104f3576040517f08c379a00000000000000000000000000000000000000000000000000000000081526004016104ea90612bbe565b60405180910390fd5b600073ffffffffffffffffffffffffffffffffffffffff16816080015173ffffffffffffffffffffffffffffffffffffffff1614610566576040517f08c379a000000000000000000000000000000000000000000000000000000000815260040161055d90612c50565b60405180910390fd5b600660008473ffffffffffffffffffffffffffffffffffffffff1673ffffffffffffffffffffffffffffffffffffffff16815260200190815260200160002060009054906101000a900460ff166105e9576040517fc905160300000000000000000000000000000000000000000000000000000000815260040160405180910390fd5b60004290506000600160008781526020019081526020016000209050848160040160006101000a81548173ffffffffffffffffffffffffffffffffffffffff021916908373ffffffffffffffffffffffffffffffffffffffff1602179055508181600401601a6101000a81548163ffffffff021916908363ffffffff1602179055506008600087815260200190815260200160002060008673ffffffffffffffffffffffffffffffffffffffff1673ffffffffffffffffffffffffffffffffffffffff16815260200190815260200160002054600360003373ffffffffffffffffffffffffffffffffffffffff1673ffffffffffffffffffffffffffffffffffffffff168152602001908152602001600020600082825461070a9190612c9f565b925050819055506008600087815260200190815260200160002060008673ffffffffffffffffffffffffffffffffffffffff1673ffffffffffffffffffffffffffffffffffffffff16815260200190815260200160002054600260003373ffffffffffffffffffffffffffffffffffffffff1673ffffffffffffffffffffffffffffffffffffffff16815260200190815260200160002060008282546107b09190612cd3565b925050819055506000600560008773ffffffffffffffffffffffffffffffffffffffff1673ffffffffffffffffffffffffffffffffffffffff168152602001908152602001600020905060018160020160006101000a81548160ff0219169083151502179055508573ffffffffffffffffffffffffffffffffffffffff163373ffffffffffffffffffffffffffffffffffffffff167fc94b51939529c736abed465cef9c3c3cacd78ac7ee0855a967ef32f07935abec89600860008c815260200190815260200160002060008b73ffffffffffffffffffffffffffffffffffffffff1673ffffffffffffffffffffffffffffffffffffffff168152602001908152602001600020546040516108c6929190612d16565b60405180910390a350505050505050565b81600060016000838152602001908152602001600020604051806101800160405290816000820154815260200160018201805461091390612b0a565b80601f016020809104026020016040519081016040528092919081815260200182805461093f90612b0a565b801561098c5780601f106109615761010080835404028352916020019161098c565b820191906000526020600020905b81548152906001019060200180831161096f57829003601f168201915b505050505081526020016002820180546109a590612b0a565b80601f01602080910402602001604051908101604052809291908181526020018280546109d190612b0a565b8015610a1e5780601f106109f357610100808354040283529160200191610a1e565b820191906000526020600020905b815481529060010190602001808311610a0157829003601f168201915b505050505081526020016003820160009054906101000a900473ffffffffffffffffffffffffffffffffffffffff1673ffffffffffffffffffffffffffffffffffffffff1673ffffffffffffffffffffffffffffffffffffffff1681526020016004820160009054906101000a900473ffffffffffffffffffffffffffffffffffffffff1673ffffffffffffffffffffffffffffffffffffffff1673ffffffffffffffffffffffffffffffffffffffff1681526020016004820160149054906101000a900460ff161515151581526020016004820160159054906101000a900460ff161515151581526020016004820160169054906101000a900463ffffffff1663ffffffff1663ffffffff16815260200160048201601a9054906101000a900463ffffffff1663ffffffff1663ffffffff1681526020016005820160009054906101000a900463ffffffff1663ffffffff1663ffffffff1681526020016006820154815260200160078201805480602002602001604051908101604052809291908181526020018280548015610c0a57602002820191906000526020600020905b8160009054906101000a900473ffffffffffffffffffffffffffffffffffffffff1673ffffffffffffffffffffffffffffffffffffffff1681526020019060010190808311610bc0575b50505050508152505090508060c00151610c59576040517f08c379a0000000000000000000000000000000000000000000000000000000008152600401610c5090612d8b565b60405180910390fd5b600073ffffffffffffffffffffffffffffffffffffffff16816080015173ffffffffffffffffffffffffffffffffffffffff1614610ccc576040517f08c379a0000000000000000000000000000000000000000000000000000000008152600401610cc390612df7565b60405180910390fd5b600660003373ffffffffffffffffffffffffffffffffffffffff1673ffffffffffffffffffffffffffffffffffffffff16815260200190815260200160002060009054906101000a900460ff16610d4f576040517fc905160300000000000000000000000000000000000000000000000000000000815260040160405180910390fd5b60006008600086815260200190815260200160002060003373ffffffffffffffffffffffffffffffffffffffff1673ffffffffffffffffffffffffffffffffffffffff1681526020019081526020016000205414610dd9576040517f9bf096ea00000000000000000000000000000000000000000000000000000000815260040160405180910390fd5b6000600560003373ffffffffffffffffffffffffffffffffffffffff1673ffffffffffffffffffffffffffffffffffffffff1681526020019081526020016000206040518060a001604052908160008201548152602001600182018054610e3f90612b0a565b80601f0160208091040260200160405190810160405280929190818152602001828054610e6b90612b0a565b8015610eb85780601f10610e8d57610100808354040283529160200191610eb8565b820191906000526020600020905b815481529060010190602001808311610e9b57829003601f168201915b505050505081526020016002820160009054906101000a900460ff161515151581526020016002820160019054906101000a900463ffffffff1663ffffffff1663ffffffff1681526020016003820154815250509050806040015115610f4a576040517f200cbaf400000000000000000000000000000000000000000000000000000000815260040160405180910390fd5b60006001600087815260200190815260200160002090508060060154851115610f9f576040517f323e863700000000000000000000000000000000000000000000000000000000815260040160405180910390fd5b80600701339080600181540180825580915050600190039060005260206000200160009091909190916101000a81548173ffffffffffffffffffffffffffffffffffffffff021916908373ffffffffffffffffffffffffffffffffffffffff160217905550846008600088815260200190815260200160002060003373ffffffffffffffffffffffffffffffffffffffff1673ffffffffffffffffffffffffffffffffffffffff168152602001908152602001600020819055506000600760008881526020019081526020016000209050600073ffffffffffffffffffffffffffffffffffffffff168160010160009054906101000a900473ffffffffffffffffffffffffffffffffffffffff1673ffffffffffffffffffffffffffffffffffffffff16141580156110d45750806000015486105b1561112a57858160000181905550338160010160006101000a81548173ffffffffffffffffffffffffffffffffffffffff021916908373ffffffffffffffffffffffffffffffffffffffff160217905550611177565b858160000181905550338160010160006101000a81548173ffffffffffffffffffffffffffffffffffffffff021916908373ffffffffffffffffffffffffffffffffffffffff1602179055505b85873373ffffffffffffffffffffffffffffffffffffffff167fb966920fc23b826292c3b95c956eba748e6d42aa61e638077a6b372c37fb5fd060405160405180910390a450505050505050565b600660003373ffffffffffffffffffffffffffffffffffffffff1673ffffffffffffffffffffffffffffffffffffffff16815260200190815260200160002060009054906101000a900460ff1615611249576040517f206e00b400000000000000000000000000000000000000000000000000000000815260040160405180910390fd5b60004290506004600081548092919061126190612e17565b91905055506040518060a0016040528060045481526020018381526020016000151581526020018263ffffffff1681526020016000815250600560003373ffffffffffffffffffffffffffffffffffffffff1673ffffffffffffffffffffffffffffffffffffffff1681526020019081526020016000206000820151816000015560208201518160010190816112f79190613016565b5060408201518160020160006101000a81548160ff02191690831515021790555060608201518160020160016101000a81548163ffffffff021916908363ffffffff160217905550608082015181600301559050506001600660003373ffffffffffffffffffffffffffffffffffffffff1673ffffffffffffffffffffffffffffffffffffffff16815260200190815260200160002060006101000a81548160ff0219169083151502179055503373ffffffffffffffffffffffffffffffffffffffff167febe8033066ccff2d9bf7c9f85f6682ddc377058545f48b4ac1ddf22284f0eb25836004546040516113ee92919061314b565b60405180910390a25050565b80600060016000838152602001908152602001600020604051806101800160405290816000820154815260200160018201805461143690612b0a565b80601f016020809104026020016040519081016040528092919081815260200182805461146290612b0a565b80156114af5780601f10611484576101008083540402835291602001916114af565b820191906000526020600020905b81548152906001019060200180831161149257829003601f168201915b505050505081526020016002820180546114c890612b0a565b80601f01602080910402602001604051908101604052809291908181526020018280546114f490612b0a565b80156115415780601f1061151657610100808354040283529160200191611541565b820191906000526020600020905b81548152906001019060200180831161152457829003601f168201915b505050505081526020016003820160009054906101000a900473ffffffffffffffffffffffffffffffffffffffff1673ffffffffffffffffffffffffffffffffffffffff1673ffffffffffffffffffffffffffffffffffffffff1681526020016004820160009054906101000a900473ffffffffffffffffffffffffffffffffffffffff1673ffffffffffffffffffffffffffffffffffffffff1673ffffffffffffffffffffffffffffffffffffffff1681526020016004820160149054906101000a900460ff161515151581526020016004820160159054906101000a900460ff161515151581526020016004820160169054906101000a900463ffffffff1663ffffffff1663ffffffff16815260200160048201601a9054906101000a900463ffffffff1663ffffffff1663ffffffff1681526020016005820160009054906101000a900463ffffffff1663ffffffff1663ffffffff168152602001600682015481526020016007820180548060200260200160405190810160405280929190818152602001828054801561172d57602002820191906000526020600020905b8160009054906101000a900473ffffffffffffffffffffffffffffffffffffffff1673ffffffffffffffffffffffffffffffffffffffff16815260200190600101908083116116e3575b5050505050815250509050806080015173ffffffffffffffffffffffffffffffffffffffff163373ffffffffffffffffffffffffffffffffffffffff16146117aa576040517f08c379a00000000000000000000000000000000000000000000000000000000081526004016117a1906131c7565b60405180910390fd5b8260006001600083815260200190815260200160002060405180610180016040529081600082015481526020016001820180546117e690612b0a565b80601f016020809104026020016040519081016040528092919081815260200182805461181290612b0a565b801561185f5780601f106118345761010080835404028352916020019161185f565b820191906000526020600020905b81548152906001019060200180831161184257829003601f168201915b5050505050815260200160028201805461187890612b0a565b80601f01602080910402602001604051908101604052809291908181526020018280546118a490612b0a565b80156118f15780601f106118c6576101008083540402835291602001916118f1565b820191906000526020600020905b8154815290600101906020018083116118d457829003601f168201915b505050505081526020016003820160009054906101000a900473ffffffffffffffffffffffffffffffffffffffff1673ffffffffffffffffffffffffffffffffffffffff1673ffffffffffffffffffffffffffffffffffffffff1681526020016004820160009054906101000a900473ffffffffffffffffffffffffffffffffffffffff1673ffffffffffffffffffffffffffffffffffffffff1673ffffffffffffffffffffffffffffffffffffffff1681526020016004820160149054906101000a900460ff161515151581526020016004820160159054906101000a900460ff161515151581526020016004820160169054906101000a900463ffffffff1663ffffffff1663ffffffff16815260200160048201601a9054906101000a900463ffffffff1663ffffffff1663ffffffff1681526020016005820160009054906101000a900463ffffffff1663ffffffff1663ffffffff1681526020016006820154815260200160078201805480602002602001604051908101604052809291908181526020018280548015611add57602002820191906000526020600020905b8160009054906101000a900473ffffffffffffffffffffffffffffffffffffffff1673ffffffffffffffffffffffffffffffffffffffff1681526020019060010190808311611a93575b50505050508152505090508060a0015115611b2d576040517f08c379a0000000000000000000000000000000000000000000000000000000008152600401611b2490613233565b60405180910390fd5b6000429050600060016000888152602001908152602001600020905060018160040160146101000a81548160ff021916908315150217905550818160050160006101000a81548163ffffffff021916908363ffffffff1602179055506000600560003373ffffffffffffffffffffffffffffffffffffffff1673ffffffffffffffffffffffffffffffffffffffff168152602001908152602001600020905060008160020160006101000a81548160ff021916908315150217905550806003016000815480929190611bfe90612e17565b91905055506008600089815260200190815260200160002060003373ffffffffffffffffffffffffffffffffffffffff1673ffffffffffffffffffffffffffffffffffffffff16815260200190815260200160002054600360008460030160009054906101000a900473ffffffffffffffffffffffffffffffffffffffff1673ffffffffffffffffffffffffffffffffffffffff1673ffffffffffffffffffffffffffffffffffffffff1681526020019081526020016000206000828254611cc69190612cd3565b925050819055503373ffffffffffffffffffffffffffffffffffffffff166108fc600860008b815260200190815260200160002060003373ffffffffffffffffffffffffffffffffffffffff1673ffffffffffffffffffffffffffffffffffffffff168152602001908152602001600020549081150290604051600060405180830381858888f19350505050158015611d63573d6000803e3d6000fd5b505050505050505050565b816000600160008381526020019081526020016000206040518061018001604052908160008201548152602001600182018054611daa90612b0a565b80601f0160208091040260200160405190810160405280929190818152602001828054611dd690612b0a565b8015611e235780601f10611df857610100808354040283529160200191611e23565b820191906000526020600020905b815481529060010190602001808311611e0657829003601f168201915b50505050508152602001600282018054611e3c90612b0a565b80601f0160208091040260200160405190810160405280929190818152602001828054611e6890612b0a565b8015611eb55780601f10611e8a57610100808354040283529160200191611eb5565b820191906000526020600020905b815481529060010190602001808311611e9857829003601f168201915b505050505081526020016003820160009054906101000a900473ffffffffffffffffffffffffffffffffffffffff1673ffffffffffffffffffffffffffffffffffffffff1673ffffffffffffffffffffffffffffffffffffffff1681526020016004820160009054906101000a900473ffffffffffffffffffffffffffffffffffffffff1673ffffffffffffffffffffffffffffffffffffffff1673ffffffffffffffffffffffffffffffffffffffff1681526020016004820160149054906101000a900460ff161515151581526020016004820160159054906101000a900460ff161515151581526020016004820160169054906101000a900463ffffffff1663ffffffff1663ffffffff16815260200160048201601a9054906101000a900463ffffffff1663ffffffff1663ffffffff1681526020016005820160009054906101000a900463ffffffff1663ffffffff1663ffffffff16815260200160068201548152602001600782018054806020026020016040519081016040528092919081815260200182805480156120a157602002820191906000526020600020905b8160009054906101000a900473ffffffffffffffffffffffffffffffffffffffff1673ffffffffffffffffffffffffffffffffffffffff1681526020019060010190808311612057575b50505050508152505090508060c001516120f0576040517f08c379a00000000000000000000000000000000000000000000000000000000081526004016120e790612d8b565b60405180910390fd5b600073ffffffffffffffffffffffffffffffffffffffff16816080015173ffffffffffffffffffffffffffffffffffffffff1614612163576040517f08c379a000000000000000000000000000000000000000000000000000000000815260040161215a90612df7565b60405180910390fd5b600660003373ffffffffffffffffffffffffffffffffffffffff1673ffffffffffffffffffffffffffffffffffffffff16815260200190815260200160002060009054906101000a900460ff166121e6576040517fc905160300000000000000000000000000000000000000000000000000000000815260040160405180910390fd5b60006008600086815260200190815260200160002060003373ffffffffffffffffffffffffffffffffffffffff1673ffffffffffffffffffffffffffffffffffffffff1681526020019081526020016000205403612270576040517f1cea46fd00000000000000000000000000000000000000000000000000000000815260040160405180910390fd5b6008600085815260200190815260200160002060003373ffffffffffffffffffffffffffffffffffffffff1673ffffffffffffffffffffffffffffffffffffffff1681526020019081526020016000205483106122f9576040517ff591936800000000000000000000000000000000000000000000000000000000815260040160405180910390fd5b60006008600086815260200190815260200160002060003373ffffffffffffffffffffffffffffffffffffffff1673ffffffffffffffffffffffffffffffffffffffff16815260200190815260200160002054905060006007600087815260200190815260200160002090508060010160009054906101000a900473ffffffffffffffffffffffffffffffffffffffff1673ffffffffffffffffffffffffffffffffffffffff163373ffffffffffffffffffffffffffffffffffffffff161480156123c75750806000015485105b156123da57848160000181905550612434565b806000015485101561243357848160000181905550338160010160006101000a81548173ffffffffffffffffffffffffffffffffffffffff021916908373ffffffffffffffffffffffffffffffffffffffff1602179055505b5b846008600088815260200190815260200160002060003373ffffffffffffffffffffffffffffffffffffffff1673ffffffffffffffffffffffffffffffffffffffff1681526020019081526020016000208190555084863373ffffffffffffffffffffffffffffffffffffffff167f68cd473c325a0d2c51d6c8b7319220827cbca47eee1719f47eae749506123a02856040516124d19190613253565b60405180910390a4505050505050565b60003411612524576040517f08c379a000000000000000000000000000000000000000000000000000000000815260040161251b906132ba565b60405180910390fd5b600042905060008081548092919061253b90612e17565b91905055506000600160008054815260200190815260200160002090506000548160000181905550838160010190816125749190613016565b50828160020190816125869190613016565b50338160030160006101000a81548173ffffffffffffffffffffffffffffffffffffffff021916908373ffffffffffffffffffffffffffffffffffffffff16021790555060008160040160006101000a81548173ffffffffffffffffffffffffffffffffffffffff021916908373ffffffffffffffffffffffffffffffffffffffff16021790555060008160040160146101000a81548160ff02191690831515021790555060018160040160156101000a81548160ff021916908315150217905550818160040160166101000a81548163ffffffff021916908363ffffffff160217905550600081600401601a6101000a81548163ffffffff021916908363ffffffff16021790555060008160050160006101000a81548163ffffffff021916908363ffffffff16021790555034816006018190555034600260003373ffffffffffffffffffffffffffffffffffffffff1673ffffffffffffffffffffffffffffffffffffffff168152602001908152602001600020600082825461270b9190612c9f565b92505081905550836040516127209190613316565b6040518091039020343373ffffffffffffffffffffffffffffffffffffffff167fdd6225889bfa804e10e994e2db425523713c09f1c6c6a0517a906dabd4df17346000546040516127719190613253565b60405180910390a450505050565b6000604051905090565b600080fd5b600080fd5b6000819050919050565b6127a681612793565b81146127b157600080fd5b50565b6000813590506127c38161279d565b92915050565b600073ffffffffffffffffffffffffffffffffffffffff82169050919050565b60006127f4826127c9565b9050919050565b612804816127e9565b811461280f57600080fd5b50565b600081359050612821816127fb565b92915050565b6000806040838503121561283e5761283d612789565b5b600061284c858286016127b4565b925050602061285d85828601612812565b9150509250929050565b6000806040838503121561287e5761287d612789565b5b600061288c858286016127b4565b925050602061289d858286016127b4565b9150509250929050565b600080fd5b600080fd5b6000601f19601f8301169050919050565b7f4e487b7100000000000000000000000000000000000000000000000000000000600052604160045260246000fd5b6128fa826128b1565b810181811067ffffffffffffffff82111715612919576129186128c2565b5b80604052505050565b600061292c61277f565b905061293882826128f1565b919050565b600067ffffffffffffffff821115612958576129576128c2565b5b612961826128b1565b9050602081019050919050565b82818337600083830152505050565b600061299061298b8461293d565b612922565b9050828152602081018484840111156129ac576129ab6128ac565b5b6129b784828561296e565b509392505050565b600082601f8301126129d4576129d36128a7565b5b81356129e484826020860161297d565b91505092915050565b600060208284031215612a0357612a02612789565b5b600082013567ffffffffffffffff811115612a2157612a2061278e565b5b612a2d848285016129bf565b91505092915050565b600060208284031215612a4c57612a4b612789565b5b6000612a5a848285016127b4565b91505092915050565b60008060408385031215612a7a57612a79612789565b5b600083013567ffffffffffffffff811115612a9857612a9761278e565b5b612aa4858286016129bf565b925050602083013567ffffffffffffffff811115612ac557612ac461278e565b5b612ad1858286016129bf565b9150509250929050565b7f4e487b7100000000000000000000000000000000000000000000000000000000600052602260045260246000fd5b60006002820490506001821680612b2257607f821691505b602082108103612b3557612b34612adb565b5b50919050565b600082825260208201905092915050565b7f4f6e6c79206f776e6572206f6620746865206a6f622077696c6c20616363657060008201527f7420746865206269642e00000000000000000000000000000000000000000000602082015250565b6000612ba8602a83612b3b565b9150612bb382612b4c565b604082019050919050565b60006020820190508181036000830152612bd781612b9b565b9050919050565b7f576f726b657220616c72656164792073656c656374656420666f72207468697360008201527f206a6f622e000000000000000000000000000000000000000000000000000000602082015250565b6000612c3a602583612b3b565b9150612c4582612bde565b604082019050919050565b60006020820190508181036000830152612c6981612c2d565b9050919050565b7f4e487b7100000000000000000000000000000000000000000000000000000000600052601160045260246000fd5b6000612caa82612793565b9150612cb583612793565b9250828201905080821115612ccd57612ccc612c70565b5b92915050565b6000612cde82612793565b9150612ce983612793565b9250828203905081811115612d0157612d00612c70565b5b92915050565b612d1081612793565b82525050565b6000604082019050612d2b6000830185612d07565b612d386020830184612d07565b9392505050565b7f4a6f6220646f6573206e6f74206578697374732e000000000000000000000000600082015250565b6000612d75601483612b3b565b9150612d8082612d3f565b602082019050919050565b60006020820190508181036000830152612da481612d68565b9050919050565b7f576f726b657220616c72656164792061737369676e65642e0000000000000000600082015250565b6000612de1601883612b3b565b9150612dec82612dab565b602082019050919050565b60006020820190508181036000830152612e1081612dd4565b9050919050565b6000612e2282612793565b91507fffffffffffffffffffffffffffffffffffffffffffffffffffffffffffffffff8203612e5457612e53612c70565b5b600182019050919050565b600081519050919050565b60008190508160005260206000209050919050565b60006020601f8301049050919050565b600082821b905092915050565b600060088302612ecc7fffffffffffffffffffffffffffffffffffffffffffffffffffffffffffffffff82612e8f565b612ed68683612e8f565b95508019841693508086168417925050509392505050565b6000819050919050565b6000612f13612f0e612f0984612793565b612eee565b612793565b9050919050565b6000819050919050565b612f2d83612ef8565b612f41612f3982612f1a565b848454612e9c565b825550505050565b600090565b612f56612f49565b612f61818484612f24565b505050565b5b81811015612f8557612f7a600082612f4e565b600181019050612f67565b5050565b601f821115612fca57612f9b81612e6a565b612fa484612e7f565b81016020851015612fb3578190505b612fc7612fbf85612e7f565b830182612f66565b50505b505050565b600082821c905092915050565b6000612fed60001984600802612fcf565b1980831691505092915050565b60006130068383612fdc565b9150826002028217905092915050565b61301f82612e5f565b67ffffffffffffffff811115613038576130376128c2565b5b6130428254612b0a565b61304d828285612f89565b600060209050601f831160018114613080576000841561306e578287015190505b6130788582612ffa565b8655506130e0565b601f19841661308e86612e6a565b60005b828110156130b657848901518255600182019150602085019450602081019050613091565b868310156130d357848901516130cf601f891682612fdc565b8355505b6001600288020188555050505b505050505050565b60005b838110156131065780820151818401526020810190506130eb565b60008484015250505050565b600061311d82612e5f565b6131278185612b3b565b93506131378185602086016130e8565b613140816128b1565b840191505092915050565b600060408201905081810360008301526131658185613112565b90506131746020830184612d07565b9392505050565b7f4f6e6c79206a6f6220776f726b657220616c6c6f7765642e0000000000000000600082015250565b60006131b1601883612b3b565b91506131bc8261317b565b602082019050919050565b600060208201905081810360008301526131e0816131a4565b9050919050565b7f4a6f6220616c726561647920636f6d706c657465642e00000000000000000000600082015250565b600061321d601683612b3b565b9150613228826131e7565b602082019050919050565b6000602082019050818103600083015261324c81613210565b9050919050565b60006020820190506132686000830184612d07565b92915050565b7f4a6f62206275646765742073686f756c64206e6f7420626520302e0000000000600082015250565b60006132a4601b83612b3b565b91506132af8261326e565b602082019050919050565b600060208201905081810360008301526132d381613297565b9050919050565b600081905092915050565b60006132f082612e5f565b6132fa81856132da565b935061330a8185602086016130e8565b80840191505092915050565b600061332282846132e5565b91508190509291505056fea2646970667358221220ae58effdaf80086e99f10cd5d81af471d256827308b909f8422e3a4698dfdf9664736f6c63430008110033",
  "immutableReferences": {},
  "source": "// SPDX-License-Identifier: MIT\r\npragma solidity >=0.8.4 <0.9.0;\r\n\r\nimport './jobs/Jobs.sol';\r\nimport './workers/Workers.sol';\r\n\r\ncontract JobMarket is Jobs, Workers{\r\n\r\n    constructor() Jobs() Workers(){}\r\n}",
  "sourcePath": "C:\\Users\\Neosoft\\Desktop\\NeoSoft\\POC\\truffle\\decentralized-job-market\\contracts\\JobMarket.sol",
  "compiler": {
    "name": "solc",
    "version": "0.8.17+commit.8df45f5f.Emscripten.clang"
  },
  "schemaVersion": "3.4.10",
  "updatedAt": "2022-11-08T11:59:45.920Z",
  "devdoc": {
    "kind": "dev",
    "methods": {},
    "version": 1
  },
  "userdoc": {
    "kind": "user",
    "methods": {},
    "version": 1
  }
}